{"contracts/Market.sol":{"Market":{"abi":[{"inputs":[{"internalType":"string","name":"_question","type":"string"},{"internalType":"uint64","name":"_endTime","type":"uint64"},{"internalType":"address","name":"_payoutToken","type":"address"},{"internalType":"bytes32","name":"_civicRule","type":"bytes32"},{"internalType":"address","name":"_civicGate","type":"address"},{"internalType":"address","name":"_dragonSwapManager","type":"address"},{"internalType":"address","name":"_creator","type":"address"}],"stateMutability":"nonpayable","type":"constructor"},{"inputs":[],"name":"ReentrancyGuardReentrantCall","type":"error"},{"inputs":[{"internalType":"address","name":"token","type":"address"}],"name":"SafeERC20FailedOperation","type":"error"},{"anonymous":false,"inputs":[{"indexed":true,"internalType":"address","name":"user","type":"address"},{"indexed":false,"internalType":"enum Market.Side","name":"side","type":"uint8"},{"indexed":false,"internalType":"uint256","name":"amount","type":"uint256"},{"indexed":false,"internalType":"uint256","name":"shares","type":"uint256"},{"indexed":false,"internalType":"address","name":"viaChain","type":"address"}],"name":"Joined","type":"event"},{"anonymous":false,"inputs":[{"indexed":true,"internalType":"address","name":"user","type":"address"},{"indexed":false,"internalType":"uint256","name":"amount","type":"uint256"},{"indexed":false,"internalType":"uint256","name":"totalShares","type":"uint256"}],"name":"Redeemed","type":"event"},{"anonymous":false,"inputs":[{"indexed":false,"internalType":"enum Market.Side","name":"winner","type":"uint8"},{"indexed":false,"internalType":"uint256","name":"timestamp","type":"uint256"}],"name":"Resolved","type":"event"},{"inputs":[],"name":"civicGate","outputs":[{"internalType":"address","name":"","type":"address"}],"stateMutability":"view","type":"function"},{"inputs":[],"name":"civicRule","outputs":[{"internalType":"bytes32","name":"","type":"bytes32"}],"stateMutability":"view","type":"function"},{"inputs":[],"name":"creator","outputs":[{"internalType":"address","name":"","type":"address"}],"stateMutability":"view","type":"function"},{"inputs":[],"name":"dragonSwapManager","outputs":[{"internalType":"address","name":"","type":"address"}],"stateMutability":"view","type":"function"},{"inputs":[],"name":"emergencyWithdraw","outputs":[],"stateMutability":"nonpayable","type":"function"},{"inputs":[],"name":"endTime","outputs":[{"internalType":"uint64","name":"","type":"uint64"}],"stateMutability":"view","type":"function"},{"inputs":[],"name":"getMarketInfo","outputs":[{"internalType":"string","name":"_question","type":"string"},{"internalType":"uint64","name":"_endTime","type":"uint64"},{"internalType":"address","name":"_payoutToken","type":"address"},{"internalType":"bool","name":"_isResolved","type":"bool"},{"internalType":"enum Market.Side","name":"_winner","type":"uint8"},{"internalType":"uint256","name":"_yesShares","type":"uint256"},{"internalType":"uint256","name":"_noShares","type":"uint256"},{"internalType":"uint256","name":"_totalLiquidity","type":"uint256"}],"stateMutability":"view","type":"function"},{"inputs":[],"name":"getOdds","outputs":[{"internalType":"uint256","name":"yesPrice","type":"uint256"},{"internalType":"uint256","name":"noPrice","type":"uint256"}],"stateMutability":"view","type":"function"},{"inputs":[{"internalType":"address","name":"user","type":"address"}],"name":"getUserPosition","outputs":[{"internalType":"uint256","name":"yes","type":"uint256"},{"internalType":"uint256","name":"no","type":"uint256"},{"internalType":"uint256","name":"deposited","type":"uint256"}],"stateMutability":"view","type":"function"},{"inputs":[],"name":"isResolved","outputs":[{"internalType":"bool","name":"","type":"bool"}],"stateMutability":"view","type":"function"},{"inputs":[{"internalType":"enum Market.Side","name":"side","type":"uint8"},{"internalType":"uint256","name":"amount","type":"uint256"},{"internalType":"bytes","name":"civicProof","type":"bytes"}],"name":"join","outputs":[],"stateMutability":"nonpayable","type":"function"},{"inputs":[{"internalType":"enum Market.Side","name":"side","type":"uint8"},{"internalType":"uint256","name":"amount","type":"uint256"},{"internalType":"address","name":"user","type":"address"},{"internalType":"bytes","name":"civicProof","type":"bytes"}],"name":"joinFromZeta","outputs":[],"stateMutability":"nonpayable","type":"function"},{"inputs":[],"name":"noShares","outputs":[{"internalType":"uint256","name":"","type":"uint256"}],"stateMutability":"view","type":"function"},{"inputs":[],"name":"payoutToken","outputs":[{"internalType":"address","name":"","type":"address"}],"stateMutability":"view","type":"function"},{"inputs":[],"name":"question","outputs":[{"internalType":"string","name":"","type":"string"}],"stateMutability":"view","type":"function"},{"inputs":[],"name":"redeem","outputs":[],"stateMutability":"nonpayable","type":"function"},{"inputs":[{"internalType":"enum Market.Side","name":"_winner","type":"uint8"}],"name":"resolve","outputs":[],"stateMutability":"nonpayable","type":"function"},{"inputs":[],"name":"totalLiquidity","outputs":[{"internalType":"uint256","name":"","type":"uint256"}],"stateMutability":"view","type":"function"},{"inputs":[{"internalType":"uint256","name":"amount","type":"uint256"}],"name":"unwindLiquidity","outputs":[{"internalType":"uint256","name":"unwound","type":"uint256"}],"stateMutability":"nonpayable","type":"function"},{"inputs":[{"internalType":"address","name":"","type":"address"}],"name":"userDeposits","outputs":[{"internalType":"uint256","name":"","type":"uint256"}],"stateMutability":"view","type":"function"},{"inputs":[{"internalType":"address","name":"","type":"address"},{"internalType":"enum Market.Side","name":"","type":"uint8"}],"name":"userShares","outputs":[{"internalType":"uint256","name":"","type":"uint256"}],"stateMutability":"view","type":"function"},{"inputs":[],"name":"winner","outputs":[{"internalType":"enum Market.Side","name":"","type":"uint8"}],"stateMutability":"view","type":"function"},{"inputs":[],"name":"yesShares","outputs":[{"internalType":"uint256","name":"","type":"uint256"}],"stateMutability":"view","type":"function"}],"evm":{"bytecode":{"linkReferences":{},"object":"608060405234801561001057600080fd5b50604051611b20380380611b2083398101604081905261002f9161023f565b6001600055426001600160401b038716116100845760405162461bcd60e51b815260206004820152601060248201526f496e76616c696420656e642074696d6560801b60448201526064015b60405180910390fd5b6001600160a01b0385166100da5760405162461bcd60e51b815260206004820152601460248201527f496e76616c6964207061796f757420746f6b656e000000000000000000000000604482015260640161007b565b6001600160a01b0381166101225760405162461bcd60e51b815260206004820152600f60248201526e24b73b30b634b21031b932b0ba37b960891b604482015260640161007b565b6001600160a01b03821661016a5760405162461bcd60e51b815260206004820152600f60248201526e24b73b30b634b21036b0b730b3b2b960891b604482015260640161007b565b600161017688826103f2565b50600280546001600160a01b0396871668010000000000000000026001600160e01b03199091166001600160401b039098169790971796909617909555600392909255600580549184166001600160a01b0319928316179055600680549284169282169290921790915560048054939092169216919091179055506104b0565b634e487b7160e01b600052604160045260246000fd5b80516001600160401b038116811461022357600080fd5b919050565b80516001600160a01b038116811461022357600080fd5b600080600080600080600060e0888a03121561025a57600080fd5b87516001600160401b0381111561027057600080fd5b8801601f81018a1361028157600080fd5b80516001600160401b0381111561029a5761029a6101f6565b604051601f8201601f19908116603f011681016001600160401b03811182821017156102c8576102c86101f6565b6040528181528282016020018c10156102e057600080fd5b60005b828110156102ff576020818501810151838301820152016102e3565b5060006020838301015280995050505061031b6020890161020c565b955061032960408901610228565b6060890151909550935061033f60808901610228565b925061034d60a08901610228565b915061035b60c08901610228565b905092959891949750929550565b600181811c9082168061037d57607f821691505b60208210810361039d57634e487b7160e01b600052602260045260246000fd5b50919050565b601f8211156103ed57806000526020600020601f840160051c810160208510156103ca5750805b601f840160051c820191505b818110156103ea57600081556001016103d6565b50505b505050565b81516001600160401b0381111561040b5761040b6101f6565b61041f816104198454610369565b846103a3565b6020601f821160018114610453576000831561043b5750848201515b600019600385901b1c1916600184901b1784556103ea565b600084815260208120601f198516915b828110156104835787850151825560209485019460019092019101610463565b50848210156104a15786840151600019600387901b60f8161c191681555b50505050600190811b01905550565b611661806104bf6000396000f3fe608060405234801561001057600080fd5b506004361061014d5760003560e01c806368179862116100c3578063be040fb01161007c578063be040fb01461032c578063bf1bcee214610334578063db2e21bc14610347578063dbb3f5371461034f578063dfbf53ae14610373578063ee9b0cd51461039457600080fd5b806368179862146102c25780636c044e49146102d757806384bda8e1146102e05780639e8fbd59146102f3578063a0270dbc14610306578063af8830651461031957600080fd5b806327c7ff611161011557806327c7ff61146101de5780633197cbb6146101e75780633fad9ae0146102125780634c5be574146102275780634efa82b6146102445780635b7c2dad1461025e57600080fd5b806302d05d3f146101525780630ba36dcd1461018257806315770f92146101b057806316953f02146101b957806323341a05146101c2575b600080fd5b600454610165906001600160a01b031681565b6040516001600160a01b0390911681526020015b60405180910390f35b6101a26101903660046111b6565b60086020526000908152604090205481565b604051908152602001610179565b6101a2600b5481565b6101a260095481565b6101ca6103bf565b604051610179989796959493929190611256565b6101a2600a5481565b6002546101fa906001600160401b031681565b6040516001600160401b039091168152602001610179565b61021a6104c9565b60405161017991906112bf565b61022f610557565b60408051928352602083019190915201610179565b60025461016590600160401b90046001600160a01b031681565b6102a761026c3660046111b6565b6001600160a01b0316600081815260076020908152604080832083805282528083205460018452818420549484526008909252909120549092565b60408051938452602084019290925290820152606001610179565b6102d56102d0366004611329565b6105af565b005b6101a260035481565b600554610165906001600160a01b031681565b6101a2610301366004611397565b6106b1565b6102d56103143660046113b0565b6107eb565b6102d56103273660046113cb565b61093d565b6102d56109da565b600654610165906001600160a01b031681565b6102d5610c23565b60065461036390600160a01b900460ff1681565b6040519015158152602001610179565b60065461038790600160a81b900460ff1681565b6040516101799190611424565b6101a26103a2366004611438565b600760209081526000928352604080842090915290825290205481565b606060008060008060008060006001600260009054906101000a90046001600160401b0316600260089054906101000a90046001600160a01b0316600660149054906101000a900460ff16600660159054906101000a900460ff16600954600a54600b5487805461042f9061146b565b80601f016020809104026020016040519081016040528092919081815260200182805461045b9061146b565b80156104a85780601f1061047d576101008083540402835291602001916104a8565b820191906000526020600020905b81548152906001019060200180831161048b57829003601f168201915b50505050509750975097509750975097509750975097509091929394959697565b600180546104d69061146b565b80601f01602080910402602001604051908101604052809291908181526020018280546105029061146b565b801561054f5780601f106105245761010080835404028352916020019161054f565b820191906000526020600020905b81548152906001019060200180831161053257829003601f168201915b505050505081565b6000806000600a5460095461056c91906114bb565b90508060000361058157506032928392509050565b80600954606461059191906114ce565b61059b91906114e5565b92506105a8836064611507565b9150509091565b6002546001600160401b03164211156106005760405162461bcd60e51b815260206004820152600e60248201526d13585c9ad95d08195e1c1a5c995960921b60448201526064015b60405180910390fd5b600654600160a01b900460ff161561062a5760405162461bcd60e51b81526004016105f79061151a565b6004546001600160a01b031633148061064d57506006546001600160a01b031633145b61068a5760405162461bcd60e51b815260206004820152600e60248201526d139bdd08185d5d1a1bdc9a5e995960921b60448201526064016105f7565b610692610d7f565b6106a0838686858533610da9565b6106aa6001600055565b5050505050565b600654600090600160a01b900460ff166107035760405162461bcd60e51b815260206004820152601360248201527213585c9ad95d081b9bdd081c995cdbdb1d9959606a1b60448201526064016105f7565b6006546001600160a01b0316331461075d5760405162461bcd60e51b815260206004820152601760248201527f4f6e6c79206d616e616765722063616e20756e77696e6400000000000000000060448201526064016105f7565b600b548211156107a85760405162461bcd60e51b8152602060048201526016602482015275496e73756666696369656e74206c697175696469747960501b60448201526064016105f7565b81600b60008282546107ba9190611507565b90915550506006546002546107e3916001600160a01b03600160401b9092048216911684611091565b50805b919050565b6002546001600160401b0316421161083a5760405162461bcd60e51b815260206004820152601260248201527113585c9ad95d081b9bdd08195e1c1a5c995960721b60448201526064016105f7565b600654600160a01b900460ff16156108645760405162461bcd60e51b81526004016105f79061151a565b6004546001600160a01b031633148061088757506006546001600160a01b031633145b6108c45760405162461bcd60e51b815260206004820152600e60248201526d139bdd08185d5d1a1bdc9a5e995960921b60448201526064016105f7565b60068054600160a01b60ff60a01b1982168117835583929161ffff60a01b191617600160a81b8360018111156108fc576108fc61121e565b02179055507fcb06b84a152f7fe5c230b7a607ec296812d6f2656f32720215281f7eefb9a1078142604051610932929190611543565b60405180910390a150565b6002546001600160401b03164211156109895760405162461bcd60e51b815260206004820152600e60248201526d13585c9ad95d08195e1c1a5c995960921b60448201526064016105f7565b600654600160a01b900460ff16156109b35760405162461bcd60e51b81526004016105f79061151a565b6109bb610d7f565b6109ca33858585856000610da9565b6109d46001600055565b50505050565b600654600160a01b900460ff16610a295760405162461bcd60e51b815260206004820152601360248201527213585c9ad95d081b9bdd081c995cdbdb1d9959606a1b60448201526064016105f7565b610a31610d7f565b3360009081526007602052604081206006548290600160a81b900460ff166001811115610a6057610a6061121e565b6001811115610a7157610a7161121e565b815260200190815260200160002054905060008111610ac65760405162461bcd60e51b81526020600482015260116024820152704e6f2077696e6e696e672073686172657360781b60448201526064016105f7565b600080600654600160a81b900460ff166001811115610ae757610ae761121e565b14610af457600a54610af8565b6009545b905060008111610b4a5760405162461bcd60e51b815260206004820152601760248201527f4e6f2077696e6e696e672073686172657320657869737400000000000000000060448201526064016105f7565b600081600b5484610b5b91906114ce565b610b6591906114e5565b33600090815260076020526040812060065492935090918290600160a81b900460ff166001811115610b9957610b9961121e565b6001811115610baa57610baa61121e565b8152602081019190915260400160002055600254610bd990600160401b90046001600160a01b03163383611091565b604080518281526020810185905233917ff3a670cd3af7d64b488926880889d08a8585a138ff455227af6737339a1ec262910160405180910390a2505050610c216001600055565b565b6004546001600160a01b03163314610c6c5760405162461bcd60e51b815260206004820152600c60248201526b27b7363c9031b932b0ba37b960a11b60448201526064016105f7565b600254610c85906001600160401b031662278d0061155e565b6001600160401b03164211610cdc5760405162461bcd60e51b815260206004820152601760248201527f546f6f206561726c7920666f7220656d657267656e637900000000000000000060448201526064016105f7565b6002546040516370a0823160e01b8152306004820152600091600160401b90046001600160a01b0316906370a0823190602401602060405180830381865afa158015610d2c573d6000803e3d6000fd5b505050506040513d601f19601f82011682018060405250810190610d50919061157d565b90508015610d7c57600454600254610d7c916001600160a01b03600160401b9092048216911683611091565b50565b600260005403610da257604051633ee5aeb560e01b815260040160405180910390fd5b6002600055565b60008411610dea5760405162461bcd60e51b815260206004820152600e60248201526d125b9d985b1a5908185b5bdd5b9d60921b60448201526064016105f7565b6001600160a01b038616610e2f5760405162461bcd60e51b815260206004820152600c60248201526b24b73b30b634b2103ab9b2b960a11b60448201526064016105f7565b60035415801590610e4a57506005546001600160a01b031615155b15610f1057600554604051632e40661960e01b81526001600160a01b0390911690632e40661990610e8390869086908b90600401611596565b602060405180830381865afa158015610ea0573d6000803e3d6000fd5b505050506040513d601f19601f82011682018060405250810190610ec491906115d7565b610f105760405162461bcd60e51b815260206004820152601960248201527f436976696320766572696669636174696f6e206661696c65640000000000000060448201526064016105f7565b60006001600160a01b038216610f265786610f28565b815b600254909150610f4a90600160401b90046001600160a01b03168230886110f5565b846000876001811115610f5f57610f5f61121e565b03610f81578060096000828254610f7691906114bb565b90915550610f999050565b80600a6000828254610f9391906114bb565b90915550505b6001600160a01b03881660009081526007602052604081208291896001811115610fc557610fc561121e565b6001811115610fd657610fd661121e565b81526020019081526020016000206000828254610ff391906114bb565b90915550506001600160a01b038816600090815260086020526040812080548892906110209084906114bb565b9250508190555085600b600082825461103991906114bb565b92505081905550876001600160a01b03167fa4753cafd1d19e99e7b7123e5e7d4def700c2480dd6071630bc96ccd0358f1718888848760405161107f94939291906115f9565b60405180910390a25050505050505050565b6040516001600160a01b038381166024830152604482018390526110f091859182169063a9059cbb906064015b604051602081830303815290604052915060e01b6020820180516001600160e01b03838183161783525050505061112e565b505050565b6040516001600160a01b0384811660248301528381166044830152606482018390526109d49186918216906323b872dd906084016110be565b600080602060008451602086016000885af180611151576040513d6000823e3d81fd5b50506000513d91508115611169578060011415611176565b6001600160a01b0384163b155b156109d457604051635274afe760e01b81526001600160a01b03851660048201526024016105f7565b80356001600160a01b03811681146107e657600080fd5b6000602082840312156111c857600080fd5b6111d18261119f565b9392505050565b6000815180845260005b818110156111fe576020818501810151868301820152016111e2565b506000602082860101526020601f19601f83011685010191505092915050565b634e487b7160e01b600052602160045260246000fd5b6002811061125257634e487b7160e01b600052602160045260246000fd5b9052565b6101008152600061126b61010083018b6111d8565b6001600160401b038a1660208401526001600160a01b0389166040840152871515606084015290506112a06080830187611234565b8460a08301528360c08301528260e08301529998505050505050505050565b6020815260006111d160208301846111d8565b8035600281106107e657600080fd5b60008083601f8401126112f357600080fd5b5081356001600160401b0381111561130a57600080fd5b60208301915083602082850101111561132257600080fd5b9250929050565b60008060008060006080868803121561134157600080fd5b61134a866112d2565b94506020860135935061135f6040870161119f565b925060608601356001600160401b0381111561137a57600080fd5b611386888289016112e1565b969995985093965092949392505050565b6000602082840312156113a957600080fd5b5035919050565b6000602082840312156113c257600080fd5b6111d1826112d2565b600080600080606085870312156113e157600080fd5b6113ea856112d2565b93506020850135925060408501356001600160401b0381111561140c57600080fd5b611418878288016112e1565b95989497509550505050565b602081016114328284611234565b92915050565b6000806040838503121561144b57600080fd5b6114548361119f565b9150611462602084016112d2565b90509250929050565b600181811c9082168061147f57607f821691505b60208210810361149f57634e487b7160e01b600052602260045260246000fd5b50919050565b634e487b7160e01b600052601160045260246000fd5b80820180821115611432576114326114a5565b8082028115828204841417611432576114326114a5565b60008261150257634e487b7160e01b600052601260045260246000fd5b500490565b81810381811115611432576114326114a5565b6020808252600f908201526e13585c9ad95d081c995cdbdb1d9959608a1b604082015260600190565b604081016115518285611234565b8260208301529392505050565b6001600160401b038181168382160190811115611432576114326114a5565b60006020828403121561158f57600080fd5b5051919050565b6040815282604082015282846060830137600060608483018101919091526001600160a01b03929092166020820152601f909201601f191690910101919050565b6000602082840312156115e957600080fd5b815180151581146111d157600080fd5b608081016116078287611234565b602082019490945260408101929092526001600160a01b031660609091015291905056fea2646970667358221220b9e3fdf3b6124b348d1a504cb6cf57618131f411be6af292e528ea6c6711e71e64736f6c634300081a0033","opcodes":"PUSH1 0x80 PUSH1 0x40 MSTORE CALLVALUE DUP1 ISZERO PUSH2 0x10 JUMPI PUSH1 0x0 DUP1 REVERT JUMPDEST POP PUSH1 0x40 MLOAD PUSH2 0x1B20 CODESIZE SUB DUP1 PUSH2 0x1B20 DUP4 CODECOPY DUP2 ADD PUSH1 0x40 DUP2 SWAP1 MSTORE PUSH2 0x2F SWAP2 PUSH2 0x23F JUMP JUMPDEST PUSH1 0x1 PUSH1 0x0 SSTORE TIMESTAMP PUSH1 0x1 PUSH1 0x1 PUSH1 0x40 SHL SUB DUP8 AND GT PUSH2 0x84 JUMPI PUSH1 0x40 MLOAD PUSH3 0x461BCD PUSH1 0xE5 SHL DUP2 MSTORE PUSH1 0x20 PUSH1 0x4 DUP3 ADD MSTORE PUSH1 0x10 PUSH1 0x24 DUP3 ADD MSTORE PUSH16 0x496E76616C696420656E642074696D65 PUSH1 0x80 SHL PUSH1 0x44 DUP3 ADD MSTORE PUSH1 0x64 ADD JUMPDEST PUSH1 0x40 MLOAD DUP1 SWAP2 SUB SWAP1 REVERT JUMPDEST PUSH1 0x1 PUSH1 0x1 PUSH1 0xA0 SHL SUB DUP6 AND PUSH2 0xDA JUMPI PUSH1 0x40 MLOAD PUSH3 0x461BCD PUSH1 0xE5 SHL DUP2 MSTORE PUSH1 0x20 PUSH1 0x4 DUP3 ADD MSTORE PUSH1 0x14 PUSH1 0x24 DUP3 ADD MSTORE PUSH32 0x496E76616C6964207061796F757420746F6B656E000000000000000000000000 PUSH1 0x44 DUP3 ADD MSTORE PUSH1 0x64 ADD PUSH2 0x7B JUMP JUMPDEST PUSH1 0x1 PUSH1 0x1 PUSH1 0xA0 SHL SUB DUP2 AND PUSH2 0x122 JUMPI PUSH1 0x40 MLOAD PUSH3 0x461BCD PUSH1 0xE5 SHL DUP2 MSTORE PUSH1 0x20 PUSH1 0x4 DUP3 ADD MSTORE PUSH1 0xF PUSH1 0x24 DUP3 ADD MSTORE PUSH15 0x24B73B30B634B21031B932B0BA37B9 PUSH1 0x89 SHL PUSH1 0x44 DUP3 ADD MSTORE PUSH1 0x64 ADD PUSH2 0x7B JUMP JUMPDEST PUSH1 0x1 PUSH1 0x1 PUSH1 0xA0 SHL SUB DUP3 AND PUSH2 0x16A JUMPI PUSH1 0x40 MLOAD PUSH3 0x461BCD PUSH1 0xE5 SHL DUP2 MSTORE PUSH1 0x20 PUSH1 0x4 DUP3 ADD MSTORE PUSH1 0xF PUSH1 0x24 DUP3 ADD MSTORE PUSH15 0x24B73B30B634B21036B0B730B3B2B9 PUSH1 0x89 SHL PUSH1 0x44 DUP3 ADD MSTORE PUSH1 0x64 ADD PUSH2 0x7B JUMP JUMPDEST PUSH1 0x1 PUSH2 0x176 DUP9 DUP3 PUSH2 0x3F2 JUMP JUMPDEST POP PUSH1 0x2 DUP1 SLOAD PUSH1 0x1 PUSH1 0x1 PUSH1 0xA0 SHL SUB SWAP7 DUP8 AND PUSH9 0x10000000000000000 MUL PUSH1 0x1 PUSH1 0x1 PUSH1 0xE0 SHL SUB NOT SWAP1 SWAP2 AND PUSH1 0x1 PUSH1 0x1 PUSH1 0x40 SHL SUB SWAP1 SWAP9 AND SWAP8 SWAP1 SWAP8 OR SWAP7 SWAP1 SWAP7 OR SWAP1 SWAP6 SSTORE PUSH1 0x3 SWAP3 SWAP1 SWAP3 SSTORE PUSH1 0x5 DUP1 SLOAD SWAP2 DUP5 AND PUSH1 0x1 PUSH1 0x1 PUSH1 0xA0 SHL SUB NOT SWAP3 DUP4 AND OR SWAP1 SSTORE PUSH1 0x6 DUP1 SLOAD SWAP3 DUP5 AND SWAP3 DUP3 AND SWAP3 SWAP1 SWAP3 OR SWAP1 SWAP2 SSTORE PUSH1 0x4 DUP1 SLOAD SWAP4 SWAP1 SWAP3 AND SWAP3 AND SWAP2 SWAP1 SWAP2 OR SWAP1 SSTORE POP PUSH2 0x4B0 JUMP JUMPDEST PUSH4 0x4E487B71 PUSH1 0xE0 SHL PUSH1 0x0 MSTORE PUSH1 0x41 PUSH1 0x4 MSTORE PUSH1 0x24 PUSH1 0x0 REVERT JUMPDEST DUP1 MLOAD PUSH1 0x1 PUSH1 0x1 PUSH1 0x40 SHL SUB DUP2 AND DUP2 EQ PUSH2 0x223 JUMPI PUSH1 0x0 DUP1 REVERT JUMPDEST SWAP2 SWAP1 POP JUMP JUMPDEST DUP1 MLOAD PUSH1 0x1 PUSH1 0x1 PUSH1 0xA0 SHL SUB DUP2 AND DUP2 EQ PUSH2 0x223 JUMPI PUSH1 0x0 DUP1 REVERT JUMPDEST PUSH1 0x0 DUP1 PUSH1 0x0 DUP1 PUSH1 0x0 DUP1 PUSH1 0x0 PUSH1 0xE0 DUP9 DUP11 SUB SLT ISZERO PUSH2 0x25A JUMPI PUSH1 0x0 DUP1 REVERT JUMPDEST DUP8 MLOAD PUSH1 0x1 PUSH1 0x1 PUSH1 0x40 SHL SUB DUP2 GT ISZERO PUSH2 0x270 JUMPI PUSH1 0x0 DUP1 REVERT JUMPDEST DUP9 ADD PUSH1 0x1F DUP2 ADD DUP11 SGT PUSH2 0x281 JUMPI PUSH1 0x0 DUP1 REVERT JUMPDEST DUP1 MLOAD PUSH1 0x1 PUSH1 0x1 PUSH1 0x40 SHL SUB DUP2 GT ISZERO PUSH2 0x29A JUMPI PUSH2 0x29A PUSH2 0x1F6 JUMP JUMPDEST PUSH1 0x40 MLOAD PUSH1 0x1F DUP3 ADD PUSH1 0x1F NOT SWAP1 DUP2 AND PUSH1 0x3F ADD AND DUP2 ADD PUSH1 0x1 PUSH1 0x1 PUSH1 0x40 SHL SUB DUP2 GT DUP3 DUP3 LT OR ISZERO PUSH2 0x2C8 JUMPI PUSH2 0x2C8 PUSH2 0x1F6 JUMP JUMPDEST PUSH1 0x40 MSTORE DUP2 DUP2 MSTORE DUP3 DUP3 ADD PUSH1 0x20 ADD DUP13 LT ISZERO PUSH2 0x2E0 JUMPI PUSH1 0x0 DUP1 REVERT JUMPDEST PUSH1 0x0 JUMPDEST DUP3 DUP2 LT ISZERO PUSH2 0x2FF JUMPI PUSH1 0x20 DUP2 DUP6 ADD DUP2 ADD MLOAD DUP4 DUP4 ADD DUP3 ADD MSTORE ADD PUSH2 0x2E3 JUMP JUMPDEST POP PUSH1 0x0 PUSH1 0x20 DUP4 DUP4 ADD ADD MSTORE DUP1 SWAP10 POP POP POP POP PUSH2 0x31B PUSH1 0x20 DUP10 ADD PUSH2 0x20C JUMP JUMPDEST SWAP6 POP PUSH2 0x329 PUSH1 0x40 DUP10 ADD PUSH2 0x228 JUMP JUMPDEST PUSH1 0x60 DUP10 ADD MLOAD SWAP1 SWAP6 POP SWAP4 POP PUSH2 0x33F PUSH1 0x80 DUP10 ADD PUSH2 0x228 JUMP JUMPDEST SWAP3 POP PUSH2 0x34D PUSH1 0xA0 DUP10 ADD PUSH2 0x228 JUMP JUMPDEST SWAP2 POP PUSH2 0x35B PUSH1 0xC0 DUP10 ADD PUSH2 0x228 JUMP JUMPDEST SWAP1 POP SWAP3 SWAP6 SWAP9 SWAP2 SWAP5 SWAP8 POP SWAP3 SWAP6 POP JUMP JUMPDEST PUSH1 0x1 DUP2 DUP2 SHR SWAP1 DUP3 AND DUP1 PUSH2 0x37D JUMPI PUSH1 0x7F DUP3 AND SWAP2 POP JUMPDEST PUSH1 0x20 DUP3 LT DUP2 SUB PUSH2 0x39D JUMPI PUSH4 0x4E487B71 PUSH1 0xE0 SHL PUSH1 0x0 MSTORE PUSH1 0x22 PUSH1 0x4 MSTORE PUSH1 0x24 PUSH1 0x0 REVERT JUMPDEST POP SWAP2 SWAP1 POP JUMP JUMPDEST PUSH1 0x1F DUP3 GT ISZERO PUSH2 0x3ED JUMPI DUP1 PUSH1 0x0 MSTORE PUSH1 0x20 PUSH1 0x0 KECCAK256 PUSH1 0x1F DUP5 ADD PUSH1 0x5 SHR DUP2 ADD PUSH1 0x20 DUP6 LT ISZERO PUSH2 0x3CA JUMPI POP DUP1 JUMPDEST PUSH1 0x1F DUP5 ADD PUSH1 0x5 SHR DUP3 ADD SWAP2 POP JUMPDEST DUP2 DUP2 LT ISZERO PUSH2 0x3EA JUMPI PUSH1 0x0 DUP2 SSTORE PUSH1 0x1 ADD PUSH2 0x3D6 JUMP JUMPDEST POP POP JUMPDEST POP POP POP JUMP JUMPDEST DUP2 MLOAD PUSH1 0x1 PUSH1 0x1 PUSH1 0x40 SHL SUB DUP2 GT ISZERO PUSH2 0x40B JUMPI PUSH2 0x40B PUSH2 0x1F6 JUMP JUMPDEST PUSH2 0x41F DUP2 PUSH2 0x419 DUP5 SLOAD PUSH2 0x369 JUMP JUMPDEST DUP5 PUSH2 0x3A3 JUMP JUMPDEST PUSH1 0x20 PUSH1 0x1F DUP3 GT PUSH1 0x1 DUP2 EQ PUSH2 0x453 JUMPI PUSH1 0x0 DUP4 ISZERO PUSH2 0x43B JUMPI POP DUP5 DUP3 ADD MLOAD JUMPDEST PUSH1 0x0 NOT PUSH1 0x3 DUP6 SWAP1 SHL SHR NOT AND PUSH1 0x1 DUP5 SWAP1 SHL OR DUP5 SSTORE PUSH2 0x3EA JUMP JUMPDEST PUSH1 0x0 DUP5 DUP2 MSTORE PUSH1 0x20 DUP2 KECCAK256 PUSH1 0x1F NOT DUP6 AND SWAP2 JUMPDEST DUP3 DUP2 LT ISZERO PUSH2 0x483 JUMPI DUP8 DUP6 ADD MLOAD DUP3 SSTORE PUSH1 0x20 SWAP5 DUP6 ADD SWAP5 PUSH1 0x1 SWAP1 SWAP3 ADD SWAP2 ADD PUSH2 0x463 JUMP JUMPDEST POP DUP5 DUP3 LT ISZERO PUSH2 0x4A1 JUMPI DUP7 DUP5 ADD MLOAD PUSH1 0x0 NOT PUSH1 0x3 DUP8 SWAP1 SHL PUSH1 0xF8 AND SHR NOT AND DUP2 SSTORE JUMPDEST POP POP POP POP PUSH1 0x1 SWAP1 DUP2 SHL ADD SWAP1 SSTORE POP JUMP JUMPDEST PUSH2 0x1661 DUP1 PUSH2 0x4BF PUSH1 0x0 CODECOPY PUSH1 0x0 RETURN INVALID PUSH1 0x80 PUSH1 0x40 MSTORE CALLVALUE DUP1 ISZERO PUSH2 0x10 JUMPI PUSH1 0x0 DUP1 REVERT JUMPDEST POP PUSH1 0x4 CALLDATASIZE LT PUSH2 0x14D JUMPI PUSH1 0x0 CALLDATALOAD PUSH1 0xE0 SHR DUP1 PUSH4 0x68179862 GT PUSH2 0xC3 JUMPI DUP1 PUSH4 0xBE040FB0 GT PUSH2 0x7C JUMPI DUP1 PUSH4 0xBE040FB0 EQ PUSH2 0x32C JUMPI DUP1 PUSH4 0xBF1BCEE2 EQ PUSH2 0x334 JUMPI DUP1 PUSH4 0xDB2E21BC EQ PUSH2 0x347 JUMPI DUP1 PUSH4 0xDBB3F537 EQ PUSH2 0x34F JUMPI DUP1 PUSH4 0xDFBF53AE EQ PUSH2 0x373 JUMPI DUP1 PUSH4 0xEE9B0CD5 EQ PUSH2 0x394 JUMPI PUSH1 0x0 DUP1 REVERT JUMPDEST DUP1 PUSH4 0x68179862 EQ PUSH2 0x2C2 JUMPI DUP1 PUSH4 0x6C044E49 EQ PUSH2 0x2D7 JUMPI DUP1 PUSH4 0x84BDA8E1 EQ PUSH2 0x2E0 JUMPI DUP1 PUSH4 0x9E8FBD59 EQ PUSH2 0x2F3 JUMPI DUP1 PUSH4 0xA0270DBC EQ PUSH2 0x306 JUMPI DUP1 PUSH4 0xAF883065 EQ PUSH2 0x319 JUMPI PUSH1 0x0 DUP1 REVERT JUMPDEST DUP1 PUSH4 0x27C7FF61 GT PUSH2 0x115 JUMPI DUP1 PUSH4 0x27C7FF61 EQ PUSH2 0x1DE JUMPI DUP1 PUSH4 0x3197CBB6 EQ PUSH2 0x1E7 JUMPI DUP1 PUSH4 0x3FAD9AE0 EQ PUSH2 0x212 JUMPI DUP1 PUSH4 0x4C5BE574 EQ PUSH2 0x227 JUMPI DUP1 PUSH4 0x4EFA82B6 EQ PUSH2 0x244 JUMPI DUP1 PUSH4 0x5B7C2DAD EQ PUSH2 0x25E JUMPI PUSH1 0x0 DUP1 REVERT JUMPDEST DUP1 PUSH4 0x2D05D3F EQ PUSH2 0x152 JUMPI DUP1 PUSH4 0xBA36DCD EQ PUSH2 0x182 JUMPI DUP1 PUSH4 0x15770F92 EQ PUSH2 0x1B0 JUMPI DUP1 PUSH4 0x16953F02 EQ PUSH2 0x1B9 JUMPI DUP1 PUSH4 0x23341A05 EQ PUSH2 0x1C2 JUMPI JUMPDEST PUSH1 0x0 DUP1 REVERT JUMPDEST PUSH1 0x4 SLOAD PUSH2 0x165 SWAP1 PUSH1 0x1 PUSH1 0x1 PUSH1 0xA0 SHL SUB AND DUP2 JUMP JUMPDEST PUSH1 0x40 MLOAD PUSH1 0x1 PUSH1 0x1 PUSH1 0xA0 SHL SUB SWAP1 SWAP2 AND DUP2 MSTORE PUSH1 0x20 ADD JUMPDEST PUSH1 0x40 MLOAD DUP1 SWAP2 SUB SWAP1 RETURN JUMPDEST PUSH2 0x1A2 PUSH2 0x190 CALLDATASIZE PUSH1 0x4 PUSH2 0x11B6 JUMP JUMPDEST PUSH1 0x8 PUSH1 0x20 MSTORE PUSH1 0x0 SWAP1 DUP2 MSTORE PUSH1 0x40 SWAP1 KECCAK256 SLOAD DUP2 JUMP JUMPDEST PUSH1 0x40 MLOAD SWAP1 DUP2 MSTORE PUSH1 0x20 ADD PUSH2 0x179 JUMP JUMPDEST PUSH2 0x1A2 PUSH1 0xB SLOAD DUP2 JUMP JUMPDEST PUSH2 0x1A2 PUSH1 0x9 SLOAD DUP2 JUMP JUMPDEST PUSH2 0x1CA PUSH2 0x3BF JUMP JUMPDEST PUSH1 0x40 MLOAD PUSH2 0x179 SWAP9 SWAP8 SWAP7 SWAP6 SWAP5 SWAP4 SWAP3 SWAP2 SWAP1 PUSH2 0x1256 JUMP JUMPDEST PUSH2 0x1A2 PUSH1 0xA SLOAD DUP2 JUMP JUMPDEST PUSH1 0x2 SLOAD PUSH2 0x1FA SWAP1 PUSH1 0x1 PUSH1 0x1 PUSH1 0x40 SHL SUB AND DUP2 JUMP JUMPDEST PUSH1 0x40 MLOAD PUSH1 0x1 PUSH1 0x1 PUSH1 0x40 SHL SUB SWAP1 SWAP2 AND DUP2 MSTORE PUSH1 0x20 ADD PUSH2 0x179 JUMP JUMPDEST PUSH2 0x21A PUSH2 0x4C9 JUMP JUMPDEST PUSH1 0x40 MLOAD PUSH2 0x179 SWAP2 SWAP1 PUSH2 0x12BF JUMP JUMPDEST PUSH2 0x22F PUSH2 0x557 JUMP JUMPDEST PUSH1 0x40 DUP1 MLOAD SWAP3 DUP4 MSTORE PUSH1 0x20 DUP4 ADD SWAP2 SWAP1 SWAP2 MSTORE ADD PUSH2 0x179 JUMP JUMPDEST PUSH1 0x2 SLOAD PUSH2 0x165 SWAP1 PUSH1 0x1 PUSH1 0x40 SHL SWAP1 DIV PUSH1 0x1 PUSH1 0x1 PUSH1 0xA0 SHL SUB AND DUP2 JUMP JUMPDEST PUSH2 0x2A7 PUSH2 0x26C CALLDATASIZE PUSH1 0x4 PUSH2 0x11B6 JUMP JUMPDEST PUSH1 0x1 PUSH1 0x1 PUSH1 0xA0 SHL SUB AND PUSH1 0x0 DUP2 DUP2 MSTORE PUSH1 0x7 PUSH1 0x20 SWAP1 DUP2 MSTORE PUSH1 0x40 DUP1 DUP4 KECCAK256 DUP4 DUP1 MSTORE DUP3 MSTORE DUP1 DUP4 KECCAK256 SLOAD PUSH1 0x1 DUP5 MSTORE DUP2 DUP5 KECCAK256 SLOAD SWAP5 DUP5 MSTORE PUSH1 0x8 SWAP1 SWAP3 MSTORE SWAP1 SWAP2 KECCAK256 SLOAD SWAP1 SWAP3 JUMP JUMPDEST PUSH1 0x40 DUP1 MLOAD SWAP4 DUP5 MSTORE PUSH1 0x20 DUP5 ADD SWAP3 SWAP1 SWAP3 MSTORE SWAP1 DUP3 ADD MSTORE PUSH1 0x60 ADD PUSH2 0x179 JUMP JUMPDEST PUSH2 0x2D5 PUSH2 0x2D0 CALLDATASIZE PUSH1 0x4 PUSH2 0x1329 JUMP JUMPDEST PUSH2 0x5AF JUMP JUMPDEST STOP JUMPDEST PUSH2 0x1A2 PUSH1 0x3 SLOAD DUP2 JUMP JUMPDEST PUSH1 0x5 SLOAD PUSH2 0x165 SWAP1 PUSH1 0x1 PUSH1 0x1 PUSH1 0xA0 SHL SUB AND DUP2 JUMP JUMPDEST PUSH2 0x1A2 PUSH2 0x301 CALLDATASIZE PUSH1 0x4 PUSH2 0x1397 JUMP JUMPDEST PUSH2 0x6B1 JUMP JUMPDEST PUSH2 0x2D5 PUSH2 0x314 CALLDATASIZE PUSH1 0x4 PUSH2 0x13B0 JUMP JUMPDEST PUSH2 0x7EB JUMP JUMPDEST PUSH2 0x2D5 PUSH2 0x327 CALLDATASIZE PUSH1 0x4 PUSH2 0x13CB JUMP JUMPDEST PUSH2 0x93D JUMP JUMPDEST PUSH2 0x2D5 PUSH2 0x9DA JUMP JUMPDEST PUSH1 0x6 SLOAD PUSH2 0x165 SWAP1 PUSH1 0x1 PUSH1 0x1 PUSH1 0xA0 SHL SUB AND DUP2 JUMP JUMPDEST PUSH2 0x2D5 PUSH2 0xC23 JUMP JUMPDEST PUSH1 0x6 SLOAD PUSH2 0x363 SWAP1 PUSH1 0x1 PUSH1 0xA0 SHL SWAP1 DIV PUSH1 0xFF AND DUP2 JUMP JUMPDEST PUSH1 0x40 MLOAD SWAP1 ISZERO ISZERO DUP2 MSTORE PUSH1 0x20 ADD PUSH2 0x179 JUMP JUMPDEST PUSH1 0x6 SLOAD PUSH2 0x387 SWAP1 PUSH1 0x1 PUSH1 0xA8 SHL SWAP1 DIV PUSH1 0xFF AND DUP2 JUMP JUMPDEST PUSH1 0x40 MLOAD PUSH2 0x179 SWAP2 SWAP1 PUSH2 0x1424 JUMP JUMPDEST PUSH2 0x1A2 PUSH2 0x3A2 CALLDATASIZE PUSH1 0x4 PUSH2 0x1438 JUMP JUMPDEST PUSH1 0x7 PUSH1 0x20 SWAP1 DUP2 MSTORE PUSH1 0x0 SWAP3 DUP4 MSTORE PUSH1 0x40 DUP1 DUP5 KECCAK256 SWAP1 SWAP2 MSTORE SWAP1 DUP3 MSTORE SWAP1 KECCAK256 SLOAD DUP2 JUMP JUMPDEST PUSH1 0x60 PUSH1 0x0 DUP1 PUSH1 0x0 DUP1 PUSH1 0x0 DUP1 PUSH1 0x0 PUSH1 0x1 PUSH1 0x2 PUSH1 0x0 SWAP1 SLOAD SWAP1 PUSH2 0x100 EXP SWAP1 DIV PUSH1 0x1 PUSH1 0x1 PUSH1 0x40 SHL SUB AND PUSH1 0x2 PUSH1 0x8 SWAP1 SLOAD SWAP1 PUSH2 0x100 EXP SWAP1 DIV PUSH1 0x1 PUSH1 0x1 PUSH1 0xA0 SHL SUB AND PUSH1 0x6 PUSH1 0x14 SWAP1 SLOAD SWAP1 PUSH2 0x100 EXP SWAP1 DIV PUSH1 0xFF AND PUSH1 0x6 PUSH1 0x15 SWAP1 SLOAD SWAP1 PUSH2 0x100 EXP SWAP1 DIV PUSH1 0xFF AND PUSH1 0x9 SLOAD PUSH1 0xA SLOAD PUSH1 0xB SLOAD DUP8 DUP1 SLOAD PUSH2 0x42F SWAP1 PUSH2 0x146B JUMP JUMPDEST DUP1 PUSH1 0x1F ADD PUSH1 0x20 DUP1 SWAP2 DIV MUL PUSH1 0x20 ADD PUSH1 0x40 MLOAD SWAP1 DUP2 ADD PUSH1 0x40 MSTORE DUP1 SWAP3 SWAP2 SWAP1 DUP2 DUP2 MSTORE PUSH1 0x20 ADD DUP3 DUP1 SLOAD PUSH2 0x45B SWAP1 PUSH2 0x146B JUMP JUMPDEST DUP1 ISZERO PUSH2 0x4A8 JUMPI DUP1 PUSH1 0x1F LT PUSH2 0x47D JUMPI PUSH2 0x100 DUP1 DUP4 SLOAD DIV MUL DUP4 MSTORE SWAP2 PUSH1 0x20 ADD SWAP2 PUSH2 0x4A8 JUMP JUMPDEST DUP3 ADD SWAP2 SWAP1 PUSH1 0x0 MSTORE PUSH1 0x20 PUSH1 0x0 KECCAK256 SWAP1 JUMPDEST DUP2 SLOAD DUP2 MSTORE SWAP1 PUSH1 0x1 ADD SWAP1 PUSH1 0x20 ADD DUP1 DUP4 GT PUSH2 0x48B JUMPI DUP3 SWAP1 SUB PUSH1 0x1F AND DUP3 ADD SWAP2 JUMPDEST POP POP POP POP POP SWAP8 POP SWAP8 POP SWAP8 POP SWAP8 POP SWAP8 POP SWAP8 POP SWAP8 POP SWAP8 POP SWAP8 POP SWAP1 SWAP2 SWAP3 SWAP4 SWAP5 SWAP6 SWAP7 SWAP8 JUMP JUMPDEST PUSH1 0x1 DUP1 SLOAD PUSH2 0x4D6 SWAP1 PUSH2 0x146B JUMP JUMPDEST DUP1 PUSH1 0x1F ADD PUSH1 0x20 DUP1 SWAP2 DIV MUL PUSH1 0x20 ADD PUSH1 0x40 MLOAD SWAP1 DUP2 ADD PUSH1 0x40 MSTORE DUP1 SWAP3 SWAP2 SWAP1 DUP2 DUP2 MSTORE PUSH1 0x20 ADD DUP3 DUP1 SLOAD PUSH2 0x502 SWAP1 PUSH2 0x146B JUMP JUMPDEST DUP1 ISZERO PUSH2 0x54F JUMPI DUP1 PUSH1 0x1F LT PUSH2 0x524 JUMPI PUSH2 0x100 DUP1 DUP4 SLOAD DIV MUL DUP4 MSTORE SWAP2 PUSH1 0x20 ADD SWAP2 PUSH2 0x54F JUMP JUMPDEST DUP3 ADD SWAP2 SWAP1 PUSH1 0x0 MSTORE PUSH1 0x20 PUSH1 0x0 KECCAK256 SWAP1 JUMPDEST DUP2 SLOAD DUP2 MSTORE SWAP1 PUSH1 0x1 ADD SWAP1 PUSH1 0x20 ADD DUP1 DUP4 GT PUSH2 0x532 JUMPI DUP3 SWAP1 SUB PUSH1 0x1F AND DUP3 ADD SWAP2 JUMPDEST POP POP POP POP POP DUP2 JUMP JUMPDEST PUSH1 0x0 DUP1 PUSH1 0x0 PUSH1 0xA SLOAD PUSH1 0x9 SLOAD PUSH2 0x56C SWAP2 SWAP1 PUSH2 0x14BB JUMP JUMPDEST SWAP1 POP DUP1 PUSH1 0x0 SUB PUSH2 0x581 JUMPI POP PUSH1 0x32 SWAP3 DUP4 SWAP3 POP SWAP1 POP JUMP JUMPDEST DUP1 PUSH1 0x9 SLOAD PUSH1 0x64 PUSH2 0x591 SWAP2 SWAP1 PUSH2 0x14CE JUMP JUMPDEST PUSH2 0x59B SWAP2 SWAP1 PUSH2 0x14E5 JUMP JUMPDEST SWAP3 POP PUSH2 0x5A8 DUP4 PUSH1 0x64 PUSH2 0x1507 JUMP JUMPDEST SWAP2 POP POP SWAP1 SWAP2 JUMP JUMPDEST PUSH1 0x2 SLOAD PUSH1 0x1 PUSH1 0x1 PUSH1 0x40 SHL SUB AND TIMESTAMP GT ISZERO PUSH2 0x600 JUMPI PUSH1 0x40 MLOAD PUSH3 0x461BCD PUSH1 0xE5 SHL DUP2 MSTORE PUSH1 0x20 PUSH1 0x4 DUP3 ADD MSTORE PUSH1 0xE PUSH1 0x24 DUP3 ADD MSTORE PUSH14 0x13585C9AD95D08195E1C1A5C9959 PUSH1 0x92 SHL PUSH1 0x44 DUP3 ADD MSTORE PUSH1 0x64 ADD JUMPDEST PUSH1 0x40 MLOAD DUP1 SWAP2 SUB SWAP1 REVERT JUMPDEST PUSH1 0x6 SLOAD PUSH1 0x1 PUSH1 0xA0 SHL SWAP1 DIV PUSH1 0xFF AND ISZERO PUSH2 0x62A JUMPI PUSH1 0x40 MLOAD PUSH3 0x461BCD PUSH1 0xE5 SHL DUP2 MSTORE PUSH1 0x4 ADD PUSH2 0x5F7 SWAP1 PUSH2 0x151A JUMP JUMPDEST PUSH1 0x4 SLOAD PUSH1 0x1 PUSH1 0x1 PUSH1 0xA0 SHL SUB AND CALLER EQ DUP1 PUSH2 0x64D JUMPI POP PUSH1 0x6 SLOAD PUSH1 0x1 PUSH1 0x1 PUSH1 0xA0 SHL SUB AND CALLER EQ JUMPDEST PUSH2 0x68A JUMPI PUSH1 0x40 MLOAD PUSH3 0x461BCD PUSH1 0xE5 SHL DUP2 MSTORE PUSH1 0x20 PUSH1 0x4 DUP3 ADD MSTORE PUSH1 0xE PUSH1 0x24 DUP3 ADD MSTORE PUSH14 0x139BDD08185D5D1A1BDC9A5E9959 PUSH1 0x92 SHL PUSH1 0x44 DUP3 ADD MSTORE PUSH1 0x64 ADD PUSH2 0x5F7 JUMP JUMPDEST PUSH2 0x692 PUSH2 0xD7F JUMP JUMPDEST PUSH2 0x6A0 DUP4 DUP7 DUP7 DUP6 DUP6 CALLER PUSH2 0xDA9 JUMP JUMPDEST PUSH2 0x6AA PUSH1 0x1 PUSH1 0x0 SSTORE JUMP JUMPDEST POP POP POP POP POP JUMP JUMPDEST PUSH1 0x6 SLOAD PUSH1 0x0 SWAP1 PUSH1 0x1 PUSH1 0xA0 SHL SWAP1 DIV PUSH1 0xFF AND PUSH2 0x703 JUMPI PUSH1 0x40 MLOAD PUSH3 0x461BCD PUSH1 0xE5 SHL DUP2 MSTORE PUSH1 0x20 PUSH1 0x4 DUP3 ADD MSTORE PUSH1 0x13 PUSH1 0x24 DUP3 ADD MSTORE PUSH19 0x13585C9AD95D081B9BDD081C995CDBDB1D9959 PUSH1 0x6A SHL PUSH1 0x44 DUP3 ADD MSTORE PUSH1 0x64 ADD PUSH2 0x5F7 JUMP JUMPDEST PUSH1 0x6 SLOAD PUSH1 0x1 PUSH1 0x1 PUSH1 0xA0 SHL SUB AND CALLER EQ PUSH2 0x75D JUMPI PUSH1 0x40 MLOAD PUSH3 0x461BCD PUSH1 0xE5 SHL DUP2 MSTORE PUSH1 0x20 PUSH1 0x4 DUP3 ADD MSTORE PUSH1 0x17 PUSH1 0x24 DUP3 ADD MSTORE PUSH32 0x4F6E6C79206D616E616765722063616E20756E77696E64000000000000000000 PUSH1 0x44 DUP3 ADD MSTORE PUSH1 0x64 ADD PUSH2 0x5F7 JUMP JUMPDEST PUSH1 0xB SLOAD DUP3 GT ISZERO PUSH2 0x7A8 JUMPI PUSH1 0x40 MLOAD PUSH3 0x461BCD PUSH1 0xE5 SHL DUP2 MSTORE PUSH1 0x20 PUSH1 0x4 DUP3 ADD MSTORE PUSH1 0x16 PUSH1 0x24 DUP3 ADD MSTORE PUSH22 0x496E73756666696369656E74206C6971756964697479 PUSH1 0x50 SHL PUSH1 0x44 DUP3 ADD MSTORE PUSH1 0x64 ADD PUSH2 0x5F7 JUMP JUMPDEST DUP2 PUSH1 0xB PUSH1 0x0 DUP3 DUP3 SLOAD PUSH2 0x7BA SWAP2 SWAP1 PUSH2 0x1507 JUMP JUMPDEST SWAP1 SWAP2 SSTORE POP POP PUSH1 0x6 SLOAD PUSH1 0x2 SLOAD PUSH2 0x7E3 SWAP2 PUSH1 0x1 PUSH1 0x1 PUSH1 0xA0 SHL SUB PUSH1 0x1 PUSH1 0x40 SHL SWAP1 SWAP3 DIV DUP3 AND SWAP2 AND DUP5 PUSH2 0x1091 JUMP JUMPDEST POP DUP1 JUMPDEST SWAP2 SWAP1 POP JUMP JUMPDEST PUSH1 0x2 SLOAD PUSH1 0x1 PUSH1 0x1 PUSH1 0x40 SHL SUB AND TIMESTAMP GT PUSH2 0x83A JUMPI PUSH1 0x40 MLOAD PUSH3 0x461BCD PUSH1 0xE5 SHL DUP2 MSTORE PUSH1 0x20 PUSH1 0x4 DUP3 ADD MSTORE PUSH1 0x12 PUSH1 0x24 DUP3 ADD MSTORE PUSH18 0x13585C9AD95D081B9BDD08195E1C1A5C9959 PUSH1 0x72 SHL PUSH1 0x44 DUP3 ADD MSTORE PUSH1 0x64 ADD PUSH2 0x5F7 JUMP JUMPDEST PUSH1 0x6 SLOAD PUSH1 0x1 PUSH1 0xA0 SHL SWAP1 DIV PUSH1 0xFF AND ISZERO PUSH2 0x864 JUMPI PUSH1 0x40 MLOAD PUSH3 0x461BCD PUSH1 0xE5 SHL DUP2 MSTORE PUSH1 0x4 ADD PUSH2 0x5F7 SWAP1 PUSH2 0x151A JUMP JUMPDEST PUSH1 0x4 SLOAD PUSH1 0x1 PUSH1 0x1 PUSH1 0xA0 SHL SUB AND CALLER EQ DUP1 PUSH2 0x887 JUMPI POP PUSH1 0x6 SLOAD PUSH1 0x1 PUSH1 0x1 PUSH1 0xA0 SHL SUB AND CALLER EQ JUMPDEST PUSH2 0x8C4 JUMPI PUSH1 0x40 MLOAD PUSH3 0x461BCD PUSH1 0xE5 SHL DUP2 MSTORE PUSH1 0x20 PUSH1 0x4 DUP3 ADD MSTORE PUSH1 0xE PUSH1 0x24 DUP3 ADD MSTORE PUSH14 0x139BDD08185D5D1A1BDC9A5E9959 PUSH1 0x92 SHL PUSH1 0x44 DUP3 ADD MSTORE PUSH1 0x64 ADD PUSH2 0x5F7 JUMP JUMPDEST PUSH1 0x6 DUP1 SLOAD PUSH1 0x1 PUSH1 0xA0 SHL PUSH1 0xFF PUSH1 0xA0 SHL NOT DUP3 AND DUP2 OR DUP4 SSTORE DUP4 SWAP3 SWAP2 PUSH2 0xFFFF PUSH1 0xA0 SHL NOT AND OR PUSH1 0x1 PUSH1 0xA8 SHL DUP4 PUSH1 0x1 DUP2 GT ISZERO PUSH2 0x8FC JUMPI PUSH2 0x8FC PUSH2 0x121E JUMP JUMPDEST MUL OR SWAP1 SSTORE POP PUSH32 0xCB06B84A152F7FE5C230B7A607EC296812D6F2656F32720215281F7EEFB9A107 DUP2 TIMESTAMP PUSH1 0x40 MLOAD PUSH2 0x932 SWAP3 SWAP2 SWAP1 PUSH2 0x1543 JUMP JUMPDEST PUSH1 0x40 MLOAD DUP1 SWAP2 SUB SWAP1 LOG1 POP JUMP JUMPDEST PUSH1 0x2 SLOAD PUSH1 0x1 PUSH1 0x1 PUSH1 0x40 SHL SUB AND TIMESTAMP GT ISZERO PUSH2 0x989 JUMPI PUSH1 0x40 MLOAD PUSH3 0x461BCD PUSH1 0xE5 SHL DUP2 MSTORE PUSH1 0x20 PUSH1 0x4 DUP3 ADD MSTORE PUSH1 0xE PUSH1 0x24 DUP3 ADD MSTORE PUSH14 0x13585C9AD95D08195E1C1A5C9959 PUSH1 0x92 SHL PUSH1 0x44 DUP3 ADD MSTORE PUSH1 0x64 ADD PUSH2 0x5F7 JUMP JUMPDEST PUSH1 0x6 SLOAD PUSH1 0x1 PUSH1 0xA0 SHL SWAP1 DIV PUSH1 0xFF AND ISZERO PUSH2 0x9B3 JUMPI PUSH1 0x40 MLOAD PUSH3 0x461BCD PUSH1 0xE5 SHL DUP2 MSTORE PUSH1 0x4 ADD PUSH2 0x5F7 SWAP1 PUSH2 0x151A JUMP JUMPDEST PUSH2 0x9BB PUSH2 0xD7F JUMP JUMPDEST PUSH2 0x9CA CALLER DUP6 DUP6 DUP6 DUP6 PUSH1 0x0 PUSH2 0xDA9 JUMP JUMPDEST PUSH2 0x9D4 PUSH1 0x1 PUSH1 0x0 SSTORE JUMP JUMPDEST POP POP POP POP JUMP JUMPDEST PUSH1 0x6 SLOAD PUSH1 0x1 PUSH1 0xA0 SHL SWAP1 DIV PUSH1 0xFF AND PUSH2 0xA29 JUMPI PUSH1 0x40 MLOAD PUSH3 0x461BCD PUSH1 0xE5 SHL DUP2 MSTORE PUSH1 0x20 PUSH1 0x4 DUP3 ADD MSTORE PUSH1 0x13 PUSH1 0x24 DUP3 ADD MSTORE PUSH19 0x13585C9AD95D081B9BDD081C995CDBDB1D9959 PUSH1 0x6A SHL PUSH1 0x44 DUP3 ADD MSTORE PUSH1 0x64 ADD PUSH2 0x5F7 JUMP JUMPDEST PUSH2 0xA31 PUSH2 0xD7F JUMP JUMPDEST CALLER PUSH1 0x0 SWAP1 DUP2 MSTORE PUSH1 0x7 PUSH1 0x20 MSTORE PUSH1 0x40 DUP2 KECCAK256 PUSH1 0x6 SLOAD DUP3 SWAP1 PUSH1 0x1 PUSH1 0xA8 SHL SWAP1 DIV PUSH1 0xFF AND PUSH1 0x1 DUP2 GT ISZERO PUSH2 0xA60 JUMPI PUSH2 0xA60 PUSH2 0x121E JUMP JUMPDEST PUSH1 0x1 DUP2 GT ISZERO PUSH2 0xA71 JUMPI PUSH2 0xA71 PUSH2 0x121E JUMP JUMPDEST DUP2 MSTORE PUSH1 0x20 ADD SWAP1 DUP2 MSTORE PUSH1 0x20 ADD PUSH1 0x0 KECCAK256 SLOAD SWAP1 POP PUSH1 0x0 DUP2 GT PUSH2 0xAC6 JUMPI PUSH1 0x40 MLOAD PUSH3 0x461BCD PUSH1 0xE5 SHL DUP2 MSTORE PUSH1 0x20 PUSH1 0x4 DUP3 ADD MSTORE PUSH1 0x11 PUSH1 0x24 DUP3 ADD MSTORE PUSH17 0x4E6F2077696E6E696E6720736861726573 PUSH1 0x78 SHL PUSH1 0x44 DUP3 ADD MSTORE PUSH1 0x64 ADD PUSH2 0x5F7 JUMP JUMPDEST PUSH1 0x0 DUP1 PUSH1 0x6 SLOAD PUSH1 0x1 PUSH1 0xA8 SHL SWAP1 DIV PUSH1 0xFF AND PUSH1 0x1 DUP2 GT ISZERO PUSH2 0xAE7 JUMPI PUSH2 0xAE7 PUSH2 0x121E JUMP JUMPDEST EQ PUSH2 0xAF4 JUMPI PUSH1 0xA SLOAD PUSH2 0xAF8 JUMP JUMPDEST PUSH1 0x9 SLOAD JUMPDEST SWAP1 POP PUSH1 0x0 DUP2 GT PUSH2 0xB4A JUMPI PUSH1 0x40 MLOAD PUSH3 0x461BCD PUSH1 0xE5 SHL DUP2 MSTORE PUSH1 0x20 PUSH1 0x4 DUP3 ADD MSTORE PUSH1 0x17 PUSH1 0x24 DUP3 ADD MSTORE PUSH32 0x4E6F2077696E6E696E6720736861726573206578697374000000000000000000 PUSH1 0x44 DUP3 ADD MSTORE PUSH1 0x64 ADD PUSH2 0x5F7 JUMP JUMPDEST PUSH1 0x0 DUP2 PUSH1 0xB SLOAD DUP5 PUSH2 0xB5B SWAP2 SWAP1 PUSH2 0x14CE JUMP JUMPDEST PUSH2 0xB65 SWAP2 SWAP1 PUSH2 0x14E5 JUMP JUMPDEST CALLER PUSH1 0x0 SWAP1 DUP2 MSTORE PUSH1 0x7 PUSH1 0x20 MSTORE PUSH1 0x40 DUP2 KECCAK256 PUSH1 0x6 SLOAD SWAP3 SWAP4 POP SWAP1 SWAP2 DUP3 SWAP1 PUSH1 0x1 PUSH1 0xA8 SHL SWAP1 DIV PUSH1 0xFF AND PUSH1 0x1 DUP2 GT ISZERO PUSH2 0xB99 JUMPI PUSH2 0xB99 PUSH2 0x121E JUMP JUMPDEST PUSH1 0x1 DUP2 GT ISZERO PUSH2 0xBAA JUMPI PUSH2 0xBAA PUSH2 0x121E JUMP JUMPDEST DUP2 MSTORE PUSH1 0x20 DUP2 ADD SWAP2 SWAP1 SWAP2 MSTORE PUSH1 0x40 ADD PUSH1 0x0 KECCAK256 SSTORE PUSH1 0x2 SLOAD PUSH2 0xBD9 SWAP1 PUSH1 0x1 PUSH1 0x40 SHL SWAP1 DIV PUSH1 0x1 PUSH1 0x1 PUSH1 0xA0 SHL SUB AND CALLER DUP4 PUSH2 0x1091 JUMP JUMPDEST PUSH1 0x40 DUP1 MLOAD DUP3 DUP2 MSTORE PUSH1 0x20 DUP2 ADD DUP6 SWAP1 MSTORE CALLER SWAP2 PUSH32 0xF3A670CD3AF7D64B488926880889D08A8585A138FF455227AF6737339A1EC262 SWAP2 ADD PUSH1 0x40 MLOAD DUP1 SWAP2 SUB SWAP1 LOG2 POP POP POP PUSH2 0xC21 PUSH1 0x1 PUSH1 0x0 SSTORE JUMP JUMPDEST JUMP JUMPDEST PUSH1 0x4 SLOAD PUSH1 0x1 PUSH1 0x1 PUSH1 0xA0 SHL SUB AND CALLER EQ PUSH2 0xC6C JUMPI PUSH1 0x40 MLOAD PUSH3 0x461BCD PUSH1 0xE5 SHL DUP2 MSTORE PUSH1 0x20 PUSH1 0x4 DUP3 ADD MSTORE PUSH1 0xC PUSH1 0x24 DUP3 ADD MSTORE PUSH12 0x27B7363C9031B932B0BA37B9 PUSH1 0xA1 SHL PUSH1 0x44 DUP3 ADD MSTORE PUSH1 0x64 ADD PUSH2 0x5F7 JUMP JUMPDEST PUSH1 0x2 SLOAD PUSH2 0xC85 SWAP1 PUSH1 0x1 PUSH1 0x1 PUSH1 0x40 SHL SUB AND PUSH3 0x278D00 PUSH2 0x155E JUMP JUMPDEST PUSH1 0x1 PUSH1 0x1 PUSH1 0x40 SHL SUB AND TIMESTAMP GT PUSH2 0xCDC JUMPI PUSH1 0x40 MLOAD PUSH3 0x461BCD PUSH1 0xE5 SHL DUP2 MSTORE PUSH1 0x20 PUSH1 0x4 DUP3 ADD MSTORE PUSH1 0x17 PUSH1 0x24 DUP3 ADD MSTORE PUSH32 0x546F6F206561726C7920666F7220656D657267656E6379000000000000000000 PUSH1 0x44 DUP3 ADD MSTORE PUSH1 0x64 ADD PUSH2 0x5F7 JUMP JUMPDEST PUSH1 0x2 SLOAD PUSH1 0x40 MLOAD PUSH4 0x70A08231 PUSH1 0xE0 SHL DUP2 MSTORE ADDRESS PUSH1 0x4 DUP3 ADD MSTORE PUSH1 0x0 SWAP2 PUSH1 0x1 PUSH1 0x40 SHL SWAP1 DIV PUSH1 0x1 PUSH1 0x1 PUSH1 0xA0 SHL SUB AND SWAP1 PUSH4 0x70A08231 SWAP1 PUSH1 0x24 ADD PUSH1 0x20 PUSH1 0x40 MLOAD DUP1 DUP4 SUB DUP2 DUP7 GAS STATICCALL ISZERO DUP1 ISZERO PUSH2 0xD2C JUMPI RETURNDATASIZE PUSH1 0x0 DUP1 RETURNDATACOPY RETURNDATASIZE PUSH1 0x0 REVERT JUMPDEST POP POP POP POP PUSH1 0x40 MLOAD RETURNDATASIZE PUSH1 0x1F NOT PUSH1 0x1F DUP3 ADD AND DUP3 ADD DUP1 PUSH1 0x40 MSTORE POP DUP2 ADD SWAP1 PUSH2 0xD50 SWAP2 SWAP1 PUSH2 0x157D JUMP JUMPDEST SWAP1 POP DUP1 ISZERO PUSH2 0xD7C JUMPI PUSH1 0x4 SLOAD PUSH1 0x2 SLOAD PUSH2 0xD7C SWAP2 PUSH1 0x1 PUSH1 0x1 PUSH1 0xA0 SHL SUB PUSH1 0x1 PUSH1 0x40 SHL SWAP1 SWAP3 DIV DUP3 AND SWAP2 AND DUP4 PUSH2 0x1091 JUMP JUMPDEST POP JUMP JUMPDEST PUSH1 0x2 PUSH1 0x0 SLOAD SUB PUSH2 0xDA2 JUMPI PUSH1 0x40 MLOAD PUSH4 0x3EE5AEB5 PUSH1 0xE0 SHL DUP2 MSTORE PUSH1 0x4 ADD PUSH1 0x40 MLOAD DUP1 SWAP2 SUB SWAP1 REVERT JUMPDEST PUSH1 0x2 PUSH1 0x0 SSTORE JUMP JUMPDEST PUSH1 0x0 DUP5 GT PUSH2 0xDEA JUMPI PUSH1 0x40 MLOAD PUSH3 0x461BCD PUSH1 0xE5 SHL DUP2 MSTORE PUSH1 0x20 PUSH1 0x4 DUP3 ADD MSTORE PUSH1 0xE PUSH1 0x24 DUP3 ADD MSTORE PUSH14 0x125B9D985B1A5908185B5BDD5B9D PUSH1 0x92 SHL PUSH1 0x44 DUP3 ADD MSTORE PUSH1 0x64 ADD PUSH2 0x5F7 JUMP JUMPDEST PUSH1 0x1 PUSH1 0x1 PUSH1 0xA0 SHL SUB DUP7 AND PUSH2 0xE2F JUMPI PUSH1 0x40 MLOAD PUSH3 0x461BCD PUSH1 0xE5 SHL DUP2 MSTORE PUSH1 0x20 PUSH1 0x4 DUP3 ADD MSTORE PUSH1 0xC PUSH1 0x24 DUP3 ADD MSTORE PUSH12 0x24B73B30B634B2103AB9B2B9 PUSH1 0xA1 SHL PUSH1 0x44 DUP3 ADD MSTORE PUSH1 0x64 ADD PUSH2 0x5F7 JUMP JUMPDEST PUSH1 0x3 SLOAD ISZERO DUP1 ISZERO SWAP1 PUSH2 0xE4A JUMPI POP PUSH1 0x5 SLOAD PUSH1 0x1 PUSH1 0x1 PUSH1 0xA0 SHL SUB AND ISZERO ISZERO JUMPDEST ISZERO PUSH2 0xF10 JUMPI PUSH1 0x5 SLOAD PUSH1 0x40 MLOAD PUSH4 0x2E406619 PUSH1 0xE0 SHL DUP2 MSTORE PUSH1 0x1 PUSH1 0x1 PUSH1 0xA0 SHL SUB SWAP1 SWAP2 AND SWAP1 PUSH4 0x2E406619 SWAP1 PUSH2 0xE83 SWAP1 DUP7 SWAP1 DUP7 SWAP1 DUP12 SWAP1 PUSH1 0x4 ADD PUSH2 0x1596 JUMP JUMPDEST PUSH1 0x20 PUSH1 0x40 MLOAD DUP1 DUP4 SUB DUP2 DUP7 GAS STATICCALL ISZERO DUP1 ISZERO PUSH2 0xEA0 JUMPI RETURNDATASIZE PUSH1 0x0 DUP1 RETURNDATACOPY RETURNDATASIZE PUSH1 0x0 REVERT JUMPDEST POP POP POP POP PUSH1 0x40 MLOAD RETURNDATASIZE PUSH1 0x1F NOT PUSH1 0x1F DUP3 ADD AND DUP3 ADD DUP1 PUSH1 0x40 MSTORE POP DUP2 ADD SWAP1 PUSH2 0xEC4 SWAP2 SWAP1 PUSH2 0x15D7 JUMP JUMPDEST PUSH2 0xF10 JUMPI PUSH1 0x40 MLOAD PUSH3 0x461BCD PUSH1 0xE5 SHL DUP2 MSTORE PUSH1 0x20 PUSH1 0x4 DUP3 ADD MSTORE PUSH1 0x19 PUSH1 0x24 DUP3 ADD MSTORE PUSH32 0x436976696320766572696669636174696F6E206661696C656400000000000000 PUSH1 0x44 DUP3 ADD MSTORE PUSH1 0x64 ADD PUSH2 0x5F7 JUMP JUMPDEST PUSH1 0x0 PUSH1 0x1 PUSH1 0x1 PUSH1 0xA0 SHL SUB DUP3 AND PUSH2 0xF26 JUMPI DUP7 PUSH2 0xF28 JUMP JUMPDEST DUP2 JUMPDEST PUSH1 0x2 SLOAD SWAP1 SWAP2 POP PUSH2 0xF4A SWAP1 PUSH1 0x1 PUSH1 0x40 SHL SWAP1 DIV PUSH1 0x1 PUSH1 0x1 PUSH1 0xA0 SHL SUB AND DUP3 ADDRESS DUP9 PUSH2 0x10F5 JUMP JUMPDEST DUP5 PUSH1 0x0 DUP8 PUSH1 0x1 DUP2 GT ISZERO PUSH2 0xF5F JUMPI PUSH2 0xF5F PUSH2 0x121E JUMP JUMPDEST SUB PUSH2 0xF81 JUMPI DUP1 PUSH1 0x9 PUSH1 0x0 DUP3 DUP3 SLOAD PUSH2 0xF76 SWAP2 SWAP1 PUSH2 0x14BB JUMP JUMPDEST SWAP1 SWAP2 SSTORE POP PUSH2 0xF99 SWAP1 POP JUMP JUMPDEST DUP1 PUSH1 0xA PUSH1 0x0 DUP3 DUP3 SLOAD PUSH2 0xF93 SWAP2 SWAP1 PUSH2 0x14BB JUMP JUMPDEST SWAP1 SWAP2 SSTORE POP POP JUMPDEST PUSH1 0x1 PUSH1 0x1 PUSH1 0xA0 SHL SUB DUP9 AND PUSH1 0x0 SWAP1 DUP2 MSTORE PUSH1 0x7 PUSH1 0x20 MSTORE PUSH1 0x40 DUP2 KECCAK256 DUP3 SWAP2 DUP10 PUSH1 0x1 DUP2 GT ISZERO PUSH2 0xFC5 JUMPI PUSH2 0xFC5 PUSH2 0x121E JUMP JUMPDEST PUSH1 0x1 DUP2 GT ISZERO PUSH2 0xFD6 JUMPI PUSH2 0xFD6 PUSH2 0x121E JUMP JUMPDEST DUP2 MSTORE PUSH1 0x20 ADD SWAP1 DUP2 MSTORE PUSH1 0x20 ADD PUSH1 0x0 KECCAK256 PUSH1 0x0 DUP3 DUP3 SLOAD PUSH2 0xFF3 SWAP2 SWAP1 PUSH2 0x14BB JUMP JUMPDEST SWAP1 SWAP2 SSTORE POP POP PUSH1 0x1 PUSH1 0x1 PUSH1 0xA0 SHL SUB DUP9 AND PUSH1 0x0 SWAP1 DUP2 MSTORE PUSH1 0x8 PUSH1 0x20 MSTORE PUSH1 0x40 DUP2 KECCAK256 DUP1 SLOAD DUP9 SWAP3 SWAP1 PUSH2 0x1020 SWAP1 DUP5 SWAP1 PUSH2 0x14BB JUMP JUMPDEST SWAP3 POP POP DUP2 SWAP1 SSTORE POP DUP6 PUSH1 0xB PUSH1 0x0 DUP3 DUP3 SLOAD PUSH2 0x1039 SWAP2 SWAP1 PUSH2 0x14BB JUMP JUMPDEST SWAP3 POP POP DUP2 SWAP1 SSTORE POP DUP8 PUSH1 0x1 PUSH1 0x1 PUSH1 0xA0 SHL SUB AND PUSH32 0xA4753CAFD1D19E99E7B7123E5E7D4DEF700C2480DD6071630BC96CCD0358F171 DUP9 DUP9 DUP5 DUP8 PUSH1 0x40 MLOAD PUSH2 0x107F SWAP5 SWAP4 SWAP3 SWAP2 SWAP1 PUSH2 0x15F9 JUMP JUMPDEST PUSH1 0x40 MLOAD DUP1 SWAP2 SUB SWAP1 LOG2 POP POP POP POP POP POP POP POP JUMP JUMPDEST PUSH1 0x40 MLOAD PUSH1 0x1 PUSH1 0x1 PUSH1 0xA0 SHL SUB DUP4 DUP2 AND PUSH1 0x24 DUP4 ADD MSTORE PUSH1 0x44 DUP3 ADD DUP4 SWAP1 MSTORE PUSH2 0x10F0 SWAP2 DUP6 SWAP2 DUP3 AND SWAP1 PUSH4 0xA9059CBB SWAP1 PUSH1 0x64 ADD JUMPDEST PUSH1 0x40 MLOAD PUSH1 0x20 DUP2 DUP4 SUB SUB DUP2 MSTORE SWAP1 PUSH1 0x40 MSTORE SWAP2 POP PUSH1 0xE0 SHL PUSH1 0x20 DUP3 ADD DUP1 MLOAD PUSH1 0x1 PUSH1 0x1 PUSH1 0xE0 SHL SUB DUP4 DUP2 DUP4 AND OR DUP4 MSTORE POP POP POP POP PUSH2 0x112E JUMP JUMPDEST POP POP POP JUMP JUMPDEST PUSH1 0x40 MLOAD PUSH1 0x1 PUSH1 0x1 PUSH1 0xA0 SHL SUB DUP5 DUP2 AND PUSH1 0x24 DUP4 ADD MSTORE DUP4 DUP2 AND PUSH1 0x44 DUP4 ADD MSTORE PUSH1 0x64 DUP3 ADD DUP4 SWAP1 MSTORE PUSH2 0x9D4 SWAP2 DUP7 SWAP2 DUP3 AND SWAP1 PUSH4 0x23B872DD SWAP1 PUSH1 0x84 ADD PUSH2 0x10BE JUMP JUMPDEST PUSH1 0x0 DUP1 PUSH1 0x20 PUSH1 0x0 DUP5 MLOAD PUSH1 0x20 DUP7 ADD PUSH1 0x0 DUP9 GAS CALL DUP1 PUSH2 0x1151 JUMPI PUSH1 0x40 MLOAD RETURNDATASIZE PUSH1 0x0 DUP3 RETURNDATACOPY RETURNDATASIZE DUP2 REVERT JUMPDEST POP POP PUSH1 0x0 MLOAD RETURNDATASIZE SWAP2 POP DUP2 ISZERO PUSH2 0x1169 JUMPI DUP1 PUSH1 0x1 EQ ISZERO PUSH2 0x1176 JUMP JUMPDEST PUSH1 0x1 PUSH1 0x1 PUSH1 0xA0 SHL SUB DUP5 AND EXTCODESIZE ISZERO JUMPDEST ISZERO PUSH2 0x9D4 JUMPI PUSH1 0x40 MLOAD PUSH4 0x5274AFE7 PUSH1 0xE0 SHL DUP2 MSTORE PUSH1 0x1 PUSH1 0x1 PUSH1 0xA0 SHL SUB DUP6 AND PUSH1 0x4 DUP3 ADD MSTORE PUSH1 0x24 ADD PUSH2 0x5F7 JUMP JUMPDEST DUP1 CALLDATALOAD PUSH1 0x1 PUSH1 0x1 PUSH1 0xA0 SHL SUB DUP2 AND DUP2 EQ PUSH2 0x7E6 JUMPI PUSH1 0x0 DUP1 REVERT JUMPDEST PUSH1 0x0 PUSH1 0x20 DUP3 DUP5 SUB SLT ISZERO PUSH2 0x11C8 JUMPI PUSH1 0x0 DUP1 REVERT JUMPDEST PUSH2 0x11D1 DUP3 PUSH2 0x119F JUMP JUMPDEST SWAP4 SWAP3 POP POP POP JUMP JUMPDEST PUSH1 0x0 DUP2 MLOAD DUP1 DUP5 MSTORE PUSH1 0x0 JUMPDEST DUP2 DUP2 LT ISZERO PUSH2 0x11FE JUMPI PUSH1 0x20 DUP2 DUP6 ADD DUP2 ADD MLOAD DUP7 DUP4 ADD DUP3 ADD MSTORE ADD PUSH2 0x11E2 JUMP JUMPDEST POP PUSH1 0x0 PUSH1 0x20 DUP3 DUP7 ADD ADD MSTORE PUSH1 0x20 PUSH1 0x1F NOT PUSH1 0x1F DUP4 ADD AND DUP6 ADD ADD SWAP2 POP POP SWAP3 SWAP2 POP POP JUMP JUMPDEST PUSH4 0x4E487B71 PUSH1 0xE0 SHL PUSH1 0x0 MSTORE PUSH1 0x21 PUSH1 0x4 MSTORE PUSH1 0x24 PUSH1 0x0 REVERT JUMPDEST PUSH1 0x2 DUP2 LT PUSH2 0x1252 JUMPI PUSH4 0x4E487B71 PUSH1 0xE0 SHL PUSH1 0x0 MSTORE PUSH1 0x21 PUSH1 0x4 MSTORE PUSH1 0x24 PUSH1 0x0 REVERT JUMPDEST SWAP1 MSTORE JUMP JUMPDEST PUSH2 0x100 DUP2 MSTORE PUSH1 0x0 PUSH2 0x126B PUSH2 0x100 DUP4 ADD DUP12 PUSH2 0x11D8 JUMP JUMPDEST PUSH1 0x1 PUSH1 0x1 PUSH1 0x40 SHL SUB DUP11 AND PUSH1 0x20 DUP5 ADD MSTORE PUSH1 0x1 PUSH1 0x1 PUSH1 0xA0 SHL SUB DUP10 AND PUSH1 0x40 DUP5 ADD MSTORE DUP8 ISZERO ISZERO PUSH1 0x60 DUP5 ADD MSTORE SWAP1 POP PUSH2 0x12A0 PUSH1 0x80 DUP4 ADD DUP8 PUSH2 0x1234 JUMP JUMPDEST DUP5 PUSH1 0xA0 DUP4 ADD MSTORE DUP4 PUSH1 0xC0 DUP4 ADD MSTORE DUP3 PUSH1 0xE0 DUP4 ADD MSTORE SWAP10 SWAP9 POP POP POP POP POP POP POP POP POP JUMP JUMPDEST PUSH1 0x20 DUP2 MSTORE PUSH1 0x0 PUSH2 0x11D1 PUSH1 0x20 DUP4 ADD DUP5 PUSH2 0x11D8 JUMP JUMPDEST DUP1 CALLDATALOAD PUSH1 0x2 DUP2 LT PUSH2 0x7E6 JUMPI PUSH1 0x0 DUP1 REVERT JUMPDEST PUSH1 0x0 DUP1 DUP4 PUSH1 0x1F DUP5 ADD SLT PUSH2 0x12F3 JUMPI PUSH1 0x0 DUP1 REVERT JUMPDEST POP DUP2 CALLDATALOAD PUSH1 0x1 PUSH1 0x1 PUSH1 0x40 SHL SUB DUP2 GT ISZERO PUSH2 0x130A JUMPI PUSH1 0x0 DUP1 REVERT JUMPDEST PUSH1 0x20 DUP4 ADD SWAP2 POP DUP4 PUSH1 0x20 DUP3 DUP6 ADD ADD GT ISZERO PUSH2 0x1322 JUMPI PUSH1 0x0 DUP1 REVERT JUMPDEST SWAP3 POP SWAP3 SWAP1 POP JUMP JUMPDEST PUSH1 0x0 DUP1 PUSH1 0x0 DUP1 PUSH1 0x0 PUSH1 0x80 DUP7 DUP9 SUB SLT ISZERO PUSH2 0x1341 JUMPI PUSH1 0x0 DUP1 REVERT JUMPDEST PUSH2 0x134A DUP7 PUSH2 0x12D2 JUMP JUMPDEST SWAP5 POP PUSH1 0x20 DUP7 ADD CALLDATALOAD SWAP4 POP PUSH2 0x135F PUSH1 0x40 DUP8 ADD PUSH2 0x119F JUMP JUMPDEST SWAP3 POP PUSH1 0x60 DUP7 ADD CALLDATALOAD PUSH1 0x1 PUSH1 0x1 PUSH1 0x40 SHL SUB DUP2 GT ISZERO PUSH2 0x137A JUMPI PUSH1 0x0 DUP1 REVERT JUMPDEST PUSH2 0x1386 DUP9 DUP3 DUP10 ADD PUSH2 0x12E1 JUMP JUMPDEST SWAP7 SWAP10 SWAP6 SWAP9 POP SWAP4 SWAP7 POP SWAP3 SWAP5 SWAP4 SWAP3 POP POP POP JUMP JUMPDEST PUSH1 0x0 PUSH1 0x20 DUP3 DUP5 SUB SLT ISZERO PUSH2 0x13A9 JUMPI PUSH1 0x0 DUP1 REVERT JUMPDEST POP CALLDATALOAD SWAP2 SWAP1 POP JUMP JUMPDEST PUSH1 0x0 PUSH1 0x20 DUP3 DUP5 SUB SLT ISZERO PUSH2 0x13C2 JUMPI PUSH1 0x0 DUP1 REVERT JUMPDEST PUSH2 0x11D1 DUP3 PUSH2 0x12D2 JUMP JUMPDEST PUSH1 0x0 DUP1 PUSH1 0x0 DUP1 PUSH1 0x60 DUP6 DUP8 SUB SLT ISZERO PUSH2 0x13E1 JUMPI PUSH1 0x0 DUP1 REVERT JUMPDEST PUSH2 0x13EA DUP6 PUSH2 0x12D2 JUMP JUMPDEST SWAP4 POP PUSH1 0x20 DUP6 ADD CALLDATALOAD SWAP3 POP PUSH1 0x40 DUP6 ADD CALLDATALOAD PUSH1 0x1 PUSH1 0x1 PUSH1 0x40 SHL SUB DUP2 GT ISZERO PUSH2 0x140C JUMPI PUSH1 0x0 DUP1 REVERT JUMPDEST PUSH2 0x1418 DUP8 DUP3 DUP9 ADD PUSH2 0x12E1 JUMP JUMPDEST SWAP6 SWAP9 SWAP5 SWAP8 POP SWAP6 POP POP POP POP JUMP JUMPDEST PUSH1 0x20 DUP2 ADD PUSH2 0x1432 DUP3 DUP5 PUSH2 0x1234 JUMP JUMPDEST SWAP3 SWAP2 POP POP JUMP JUMPDEST PUSH1 0x0 DUP1 PUSH1 0x40 DUP4 DUP6 SUB SLT ISZERO PUSH2 0x144B JUMPI PUSH1 0x0 DUP1 REVERT JUMPDEST PUSH2 0x1454 DUP4 PUSH2 0x119F JUMP JUMPDEST SWAP2 POP PUSH2 0x1462 PUSH1 0x20 DUP5 ADD PUSH2 0x12D2 JUMP JUMPDEST SWAP1 POP SWAP3 POP SWAP3 SWAP1 POP JUMP JUMPDEST PUSH1 0x1 DUP2 DUP2 SHR SWAP1 DUP3 AND DUP1 PUSH2 0x147F JUMPI PUSH1 0x7F DUP3 AND SWAP2 POP JUMPDEST PUSH1 0x20 DUP3 LT DUP2 SUB PUSH2 0x149F JUMPI PUSH4 0x4E487B71 PUSH1 0xE0 SHL PUSH1 0x0 MSTORE PUSH1 0x22 PUSH1 0x4 MSTORE PUSH1 0x24 PUSH1 0x0 REVERT JUMPDEST POP SWAP2 SWAP1 POP JUMP JUMPDEST PUSH4 0x4E487B71 PUSH1 0xE0 SHL PUSH1 0x0 MSTORE PUSH1 0x11 PUSH1 0x4 MSTORE PUSH1 0x24 PUSH1 0x0 REVERT JUMPDEST DUP1 DUP3 ADD DUP1 DUP3 GT ISZERO PUSH2 0x1432 JUMPI PUSH2 0x1432 PUSH2 0x14A5 JUMP JUMPDEST DUP1 DUP3 MUL DUP2 ISZERO DUP3 DUP3 DIV DUP5 EQ OR PUSH2 0x1432 JUMPI PUSH2 0x1432 PUSH2 0x14A5 JUMP JUMPDEST PUSH1 0x0 DUP3 PUSH2 0x1502 JUMPI PUSH4 0x4E487B71 PUSH1 0xE0 SHL PUSH1 0x0 MSTORE PUSH1 0x12 PUSH1 0x4 MSTORE PUSH1 0x24 PUSH1 0x0 REVERT JUMPDEST POP DIV SWAP1 JUMP JUMPDEST DUP2 DUP2 SUB DUP2 DUP2 GT ISZERO PUSH2 0x1432 JUMPI PUSH2 0x1432 PUSH2 0x14A5 JUMP JUMPDEST PUSH1 0x20 DUP1 DUP3 MSTORE PUSH1 0xF SWAP1 DUP3 ADD MSTORE PUSH15 0x13585C9AD95D081C995CDBDB1D9959 PUSH1 0x8A SHL PUSH1 0x40 DUP3 ADD MSTORE PUSH1 0x60 ADD SWAP1 JUMP JUMPDEST PUSH1 0x40 DUP2 ADD PUSH2 0x1551 DUP3 DUP6 PUSH2 0x1234 JUMP JUMPDEST DUP3 PUSH1 0x20 DUP4 ADD MSTORE SWAP4 SWAP3 POP POP POP JUMP JUMPDEST PUSH1 0x1 PUSH1 0x1 PUSH1 0x40 SHL SUB DUP2 DUP2 AND DUP4 DUP3 AND ADD SWAP1 DUP2 GT ISZERO PUSH2 0x1432 JUMPI PUSH2 0x1432 PUSH2 0x14A5 JUMP JUMPDEST PUSH1 0x0 PUSH1 0x20 DUP3 DUP5 SUB SLT ISZERO PUSH2 0x158F JUMPI PUSH1 0x0 DUP1 REVERT JUMPDEST POP MLOAD SWAP2 SWAP1 POP JUMP JUMPDEST PUSH1 0x40 DUP2 MSTORE DUP3 PUSH1 0x40 DUP3 ADD MSTORE DUP3 DUP5 PUSH1 0x60 DUP4 ADD CALLDATACOPY PUSH1 0x0 PUSH1 0x60 DUP5 DUP4 ADD DUP2 ADD SWAP2 SWAP1 SWAP2 MSTORE PUSH1 0x1 PUSH1 0x1 PUSH1 0xA0 SHL SUB SWAP3 SWAP1 SWAP3 AND PUSH1 0x20 DUP3 ADD MSTORE PUSH1 0x1F SWAP1 SWAP3 ADD PUSH1 0x1F NOT AND SWAP1 SWAP2 ADD ADD SWAP2 SWAP1 POP JUMP JUMPDEST PUSH1 0x0 PUSH1 0x20 DUP3 DUP5 SUB SLT ISZERO PUSH2 0x15E9 JUMPI PUSH1 0x0 DUP1 REVERT JUMPDEST DUP2 MLOAD DUP1 ISZERO ISZERO DUP2 EQ PUSH2 0x11D1 JUMPI PUSH1 0x0 DUP1 REVERT JUMPDEST PUSH1 0x80 DUP2 ADD PUSH2 0x1607 DUP3 DUP8 PUSH2 0x1234 JUMP JUMPDEST PUSH1 0x20 DUP3 ADD SWAP5 SWAP1 SWAP5 MSTORE PUSH1 0x40 DUP2 ADD SWAP3 SWAP1 SWAP3 MSTORE PUSH1 0x1 PUSH1 0x1 PUSH1 0xA0 SHL SUB AND PUSH1 0x60 SWAP1 SWAP2 ADD MSTORE SWAP2 SWAP1 POP JUMP INVALID LOG2 PUSH5 0x6970667358 0x22 SLT KECCAK256 0xB9 0xE3 REVERT RETURN 0xB6 SLT 0x4B CALLVALUE DUP14 BYTE POP 0x4C 0xB6 0xCF JUMPI PUSH2 0x8131 DELEGATECALL GT 0xBE PUSH11 0xF292E528EA6C6711E71E64 PUSH20 0x6F6C634300081A00330000000000000000000000 "},"methodIdentifiers":{"civicGate()":"84bda8e1","civicRule()":"6c044e49","creator()":"02d05d3f","dragonSwapManager()":"bf1bcee2","emergencyWithdraw()":"db2e21bc","endTime()":"3197cbb6","getMarketInfo()":"23341a05","getOdds()":"4c5be574","getUserPosition(address)":"5b7c2dad","isResolved()":"dbb3f537","join(uint8,uint256,bytes)":"af883065","joinFromZeta(uint8,uint256,address,bytes)":"68179862","noShares()":"27c7ff61","payoutToken()":"4efa82b6","question()":"3fad9ae0","redeem()":"be040fb0","resolve(uint8)":"a0270dbc","totalLiquidity()":"15770f92","unwindLiquidity(uint256)":"9e8fbd59","userDeposits(address)":"0ba36dcd","userShares(address,uint8)":"ee9b0cd5","winner()":"dfbf53ae","yesShares()":"16953f02"}}}}}