{
  "_format": "hh-sol-artifact-1",
  "contractName": "DragonSwapManager",
  "sourceName": "contracts/DragonSwapManager.sol",
  "abi": [
    {
      "inputs": [
        {
          "internalType": "address",
          "name": "initialOwner",
          "type": "address"
        }
      ],
      "stateMutability": "nonpayable",
      "type": "constructor"
    },
    {
      "inputs": [
        {
          "internalType": "address",
          "name": "owner",
          "type": "address"
        }
      ],
      "name": "OwnableInvalidOwner",
      "type": "error"
    },
    {
      "inputs": [
        {
          "internalType": "address",
          "name": "account",
          "type": "address"
        }
      ],
      "name": "OwnableUnauthorizedAccount",
      "type": "error"
    },
    {
      "inputs": [],
      "name": "ReentrancyGuardReentrantCall",
      "type": "error"
    },
    {
      "inputs": [
        {
          "internalType": "address",
          "name": "token",
          "type": "address"
        }
      ],
      "name": "SafeERC20FailedOperation",
      "type": "error"
    },
    {
      "anonymous": false,
      "inputs": [
        {
          "indexed": true,
          "internalType": "bytes32",
          "name": "requestId",
          "type": "bytes32"
        },
        {
          "indexed": false,
          "internalType": "uint256",
          "name": "amount",
          "type": "uint256"
        }
      ],
      "name": "CrossChainSwapCompleted",
      "type": "event"
    },
    {
      "anonymous": false,
      "inputs": [
        {
          "indexed": true,
          "internalType": "address",
          "name": "market",
          "type": "address"
        },
        {
          "indexed": false,
          "internalType": "uint256",
          "name": "amount",
          "type": "uint256"
        },
        {
          "indexed": false,
          "internalType": "uint256",
          "name": "targetChain",
          "type": "uint256"
        }
      ],
      "name": "CrossChainSwapInitiated",
      "type": "event"
    },
    {
      "anonymous": false,
      "inputs": [
        {
          "indexed": true,
          "internalType": "address",
          "name": "market",
          "type": "address"
        },
        {
          "indexed": false,
          "internalType": "uint256",
          "name": "amount",
          "type": "uint256"
        },
        {
          "indexed": false,
          "internalType": "uint256",
          "name": "received",
          "type": "uint256"
        }
      ],
      "name": "LiquidityUnwound",
      "type": "event"
    },
    {
      "anonymous": false,
      "inputs": [
        {
          "indexed": true,
          "internalType": "address",
          "name": "market",
          "type": "address"
        },
        {
          "indexed": false,
          "internalType": "address",
          "name": "tokenA",
          "type": "address"
        },
        {
          "indexed": false,
          "internalType": "address",
          "name": "tokenB",
          "type": "address"
        }
      ],
      "name": "MarketCreated",
      "type": "event"
    },
    {
      "anonymous": false,
      "inputs": [
        {
          "indexed": true,
          "internalType": "address",
          "name": "market",
          "type": "address"
        },
        {
          "indexed": false,
          "internalType": "uint256",
          "name": "newReserveA",
          "type": "uint256"
        },
        {
          "indexed": false,
          "internalType": "uint256",
          "name": "newReserveB",
          "type": "uint256"
        }
      ],
      "name": "MarketRebalanced",
      "type": "event"
    },
    {
      "anonymous": false,
      "inputs": [
        {
          "indexed": true,
          "internalType": "address",
          "name": "previousOwner",
          "type": "address"
        },
        {
          "indexed": true,
          "internalType": "address",
          "name": "newOwner",
          "type": "address"
        }
      ],
      "name": "OwnershipTransferred",
      "type": "event"
    },
    {
      "inputs": [],
      "name": "BASIS_POINTS",
      "outputs": [
        {
          "internalType": "uint256",
          "name": "",
          "type": "uint256"
        }
      ],
      "stateMutability": "view",
      "type": "function"
    },
    {
      "inputs": [],
      "name": "REBALANCE_COOLDOWN",
      "outputs": [
        {
          "internalType": "uint256",
          "name": "",
          "type": "uint256"
        }
      ],
      "stateMutability": "view",
      "type": "function"
    },
    {
      "inputs": [],
      "name": "REBALANCE_THRESHOLD",
      "outputs": [
        {
          "internalType": "uint256",
          "name": "",
          "type": "uint256"
        }
      ],
      "stateMutability": "view",
      "type": "function"
    },
    {
      "inputs": [
        {
          "internalType": "address",
          "name": "market",
          "type": "address"
        },
        {
          "internalType": "uint256",
          "name": "amountA",
          "type": "uint256"
        },
        {
          "internalType": "uint256",
          "name": "amountB",
          "type": "uint256"
        }
      ],
      "name": "addLiquidity",
      "outputs": [],
      "stateMutability": "nonpayable",
      "type": "function"
    },
    {
      "inputs": [
        {
          "internalType": "address",
          "name": "",
          "type": "address"
        }
      ],
      "name": "authorizedFactories",
      "outputs": [
        {
          "internalType": "bool",
          "name": "",
          "type": "bool"
        }
      ],
      "stateMutability": "view",
      "type": "function"
    },
    {
      "inputs": [
        {
          "internalType": "address",
          "name": "",
          "type": "address"
        }
      ],
      "name": "authorizedKeepers",
      "outputs": [
        {
          "internalType": "bool",
          "name": "",
          "type": "bool"
        }
      ],
      "stateMutability": "view",
      "type": "function"
    },
    {
      "inputs": [
        {
          "internalType": "address",
          "name": "market",
          "type": "address"
        }
      ],
      "name": "emergencyWithdraw",
      "outputs": [],
      "stateMutability": "nonpayable",
      "type": "function"
    },
    {
      "inputs": [],
      "name": "gateway",
      "outputs": [
        {
          "internalType": "contract IGatewayZEVM",
          "name": "",
          "type": "address"
        }
      ],
      "stateMutability": "view",
      "type": "function"
    },
    {
      "inputs": [],
      "name": "getAllMarkets",
      "outputs": [
        {
          "internalType": "address[]",
          "name": "",
          "type": "address[]"
        }
      ],
      "stateMutability": "view",
      "type": "function"
    },
    {
      "inputs": [],
      "name": "getMarketCount",
      "outputs": [
        {
          "internalType": "uint256",
          "name": "",
          "type": "uint256"
        }
      ],
      "stateMutability": "view",
      "type": "function"
    },
    {
      "inputs": [
        {
          "internalType": "address",
          "name": "market",
          "type": "address"
        }
      ],
      "name": "getMarketInfo",
      "outputs": [
        {
          "components": [
            {
              "internalType": "address",
              "name": "tokenA",
              "type": "address"
            },
            {
              "internalType": "address",
              "name": "tokenB",
              "type": "address"
            },
            {
              "internalType": "uint256",
              "name": "reserveA",
              "type": "uint256"
            },
            {
              "internalType": "uint256",
              "name": "reserveB",
              "type": "uint256"
            },
            {
              "internalType": "uint256",
              "name": "totalLiquidity",
              "type": "uint256"
            },
            {
              "internalType": "bool",
              "name": "isActive",
              "type": "bool"
            },
            {
              "internalType": "uint256",
              "name": "lastRebalanceTime",
              "type": "uint256"
            },
            {
              "internalType": "uint256",
              "name": "targetRatio",
              "type": "uint256"
            }
          ],
          "internalType": "struct DragonSwapManager.Market",
          "name": "",
          "type": "tuple"
        }
      ],
      "stateMutability": "view",
      "type": "function"
    },
    {
      "inputs": [
        {
          "internalType": "address",
          "name": "sender",
          "type": "address"
        },
        {
          "internalType": "uint256",
          "name": "sourceChain",
          "type": "uint256"
        },
        {
          "internalType": "bytes",
          "name": "data",
          "type": "bytes"
        }
      ],
      "name": "handleCrossChainCall",
      "outputs": [],
      "stateMutability": "nonpayable",
      "type": "function"
    },
    {
      "inputs": [
        {
          "internalType": "address",
          "name": "market",
          "type": "address"
        },
        {
          "internalType": "uint256",
          "name": "amount",
          "type": "uint256"
        },
        {
          "internalType": "uint256",
          "name": "targetChain",
          "type": "uint256"
        },
        {
          "internalType": "address",
          "name": "targetAddress",
          "type": "address"
        },
        {
          "internalType": "bytes",
          "name": "callData",
          "type": "bytes"
        }
      ],
      "name": "initiateCrossChainSwap",
      "outputs": [],
      "stateMutability": "nonpayable",
      "type": "function"
    },
    {
      "inputs": [
        {
          "internalType": "uint256",
          "name": "",
          "type": "uint256"
        }
      ],
      "name": "marketList",
      "outputs": [
        {
          "internalType": "address",
          "name": "",
          "type": "address"
        }
      ],
      "stateMutability": "view",
      "type": "function"
    },
    {
      "inputs": [
        {
          "internalType": "address",
          "name": "",
          "type": "address"
        }
      ],
      "name": "markets",
      "outputs": [
        {
          "internalType": "address",
          "name": "tokenA",
          "type": "address"
        },
        {
          "internalType": "address",
          "name": "tokenB",
          "type": "address"
        },
        {
          "internalType": "uint256",
          "name": "reserveA",
          "type": "uint256"
        },
        {
          "internalType": "uint256",
          "name": "reserveB",
          "type": "uint256"
        },
        {
          "internalType": "uint256",
          "name": "totalLiquidity",
          "type": "uint256"
        },
        {
          "internalType": "bool",
          "name": "isActive",
          "type": "bool"
        },
        {
          "internalType": "uint256",
          "name": "lastRebalanceTime",
          "type": "uint256"
        },
        {
          "internalType": "uint256",
          "name": "targetRatio",
          "type": "uint256"
        }
      ],
      "stateMutability": "view",
      "type": "function"
    },
    {
      "inputs": [],
      "name": "owner",
      "outputs": [
        {
          "internalType": "address",
          "name": "",
          "type": "address"
        }
      ],
      "stateMutability": "view",
      "type": "function"
    },
    {
      "inputs": [
        {
          "internalType": "bytes32",
          "name": "",
          "type": "bytes32"
        }
      ],
      "name": "pendingRequests",
      "outputs": [
        {
          "internalType": "address",
          "name": "sender",
          "type": "address"
        },
        {
          "internalType": "address",
          "name": "market",
          "type": "address"
        },
        {
          "internalType": "uint256",
          "name": "amount",
          "type": "uint256"
        },
        {
          "internalType": "uint256",
          "name": "chainId",
          "type": "uint256"
        },
        {
          "internalType": "bytes",
          "name": "data",
          "type": "bytes"
        }
      ],
      "stateMutability": "view",
      "type": "function"
    },
    {
      "inputs": [
        {
          "internalType": "address",
          "name": "market",
          "type": "address"
        }
      ],
      "name": "rebalance",
      "outputs": [],
      "stateMutability": "nonpayable",
      "type": "function"
    },
    {
      "inputs": [],
      "name": "renounceOwnership",
      "outputs": [],
      "stateMutability": "nonpayable",
      "type": "function"
    },
    {
      "inputs": [
        {
          "internalType": "address",
          "name": "factory",
          "type": "address"
        },
        {
          "internalType": "bool",
          "name": "authorized",
          "type": "bool"
        }
      ],
      "name": "setAuthorizedFactory",
      "outputs": [],
      "stateMutability": "nonpayable",
      "type": "function"
    },
    {
      "inputs": [
        {
          "internalType": "address",
          "name": "keeper",
          "type": "address"
        },
        {
          "internalType": "bool",
          "name": "authorized",
          "type": "bool"
        }
      ],
      "name": "setAuthorizedKeeper",
      "outputs": [],
      "stateMutability": "nonpayable",
      "type": "function"
    },
    {
      "inputs": [
        {
          "internalType": "address",
          "name": "market",
          "type": "address"
        },
        {
          "internalType": "uint256",
          "name": "ratio",
          "type": "uint256"
        }
      ],
      "name": "setMarketTargetRatio",
      "outputs": [],
      "stateMutability": "nonpayable",
      "type": "function"
    },
    {
      "inputs": [
        {
          "internalType": "address",
          "name": "market",
          "type": "address"
        },
        {
          "internalType": "address",
          "name": "tokenA",
          "type": "address"
        },
        {
          "internalType": "address",
          "name": "tokenB",
          "type": "address"
        }
      ],
      "name": "setPair",
      "outputs": [],
      "stateMutability": "nonpayable",
      "type": "function"
    },
    {
      "inputs": [],
      "name": "systemContract",
      "outputs": [
        {
          "internalType": "contract SystemContract",
          "name": "",
          "type": "address"
        }
      ],
      "stateMutability": "view",
      "type": "function"
    },
    {
      "inputs": [
        {
          "internalType": "address",
          "name": "newOwner",
          "type": "address"
        }
      ],
      "name": "transferOwnership",
      "outputs": [],
      "stateMutability": "nonpayable",
      "type": "function"
    },
    {
      "inputs": [
        {
          "internalType": "address",
          "name": "market",
          "type": "address"
        },
        {
          "internalType": "uint256",
          "name": "needed",
          "type": "uint256"
        }
      ],
      "name": "unwindForPayout",
      "outputs": [
        {
          "internalType": "uint256",
          "name": "got",
          "type": "uint256"
        }
      ],
      "stateMutability": "nonpayable",
      "type": "function"
    }
  ],
  "bytecode": "0x608060405234801561001057600080fd5b506040516120ad3803806120ad83398101604081905261002f916100c2565b806001600160a01b03811661005e57604051631e4fbdf760e01b81526000600482015260240160405180910390fd5b61006781610072565b5050600180556100f2565b600080546001600160a01b038381166001600160a01b0319831681178455604051919092169283917f8be0079c531659141344cd1fd0a4f28419497f9722a3daafe3b4186f6b6457e09190a35050565b6000602082840312156100d457600080fd5b81516001600160a01b03811681146100eb57600080fd5b9392505050565b611fac806101016000396000f3fe608060405234801561001057600080fd5b506004361061018e5760003560e01c80638da5cb5b116100de578063c56f264d11610097578063ecd24a8211610071578063ecd24a8214610471578063f2fde38b14610494578063fce6dcf1146104a7578063fd69f3c2146104ba57600080fd5b8063c56f264d1461042c578063c85b967d1461045f578063e1f1c4a71461046857600080fd5b80638da5cb5b1461032d5780638e8f294b1461033e5780638faee2a8146103e8578063b0772d0b146103f1578063b3bb3e8814610406578063bb88b7691461041957600080fd5b80632986ac8e1161014b5780636c25ea21116101255780636c25ea21146102de5780636ff1c9bc146102ff578063715018a6146103125780637bb410121461031a57600080fd5b80632986ac8e146102a557806355776b77146102b85780635c85c588146102cb57600080fd5b8063028ca3a4146101935780630cf85bcc146101a8578063116191b61461023057806321c281911461025b578063232b956c1461026e5780632795ad2014610281575b600080fd5b6101a66101a1366004611892565b6104c2565b005b6101bb6101b63660046118d0565b6104f5565b604051610227919081516001600160a01b0390811682526020808401519091169082015260408083015190820152606080830151908201526080808301519082015260a08281015115159082015260c0808301519082015260e091820151918101919091526101000190565b60405180910390f35b600354610243906001600160a01b031681565b6040516001600160a01b039091168152602001610227565b6101a66102693660046118d0565b6105d0565b61024361027c3660046118ed565b6107f0565b61029461028f3660046118ed565b61081a565b60405161022795949392919061194c565b6101a66102b3366004611991565b6108e0565b6101a66102c63660046119bd565b610987565b6101a66102d9366004611892565b610a73565b6102f16102ec366004611991565b610aa6565b604051908152602001610227565b6101a661030d3660046118d0565b610c8b565b6101a6610d74565b6101a66103283660046119f2565b610d88565b6000546001600160a01b0316610243565b6103a061034c3660046118d0565b6004602081905260009182526040909120805460018201546002830154600384015494840154600585015460068601546007909601546001600160a01b039586169794909516959294919260ff9091169188565b604080516001600160a01b03998a1681529890971660208901529587019490945260608601929092526080850152151560a084015260c083015260e082015261010001610227565b6102f1610e1081565b6103f961100b565b6040516102279190611a3d565b6101a6610414366004611ad2565b61106d565b600254610243906001600160a01b031681565b61044f61043a3660046118d0565b60066020526000908152604090205460ff1681565b6040519015158152602001610227565b6102f16101f481565b6102f161271081565b61044f61047f3660046118d0565b60056020526000908152604090205460ff1681565b6101a66104a23660046118d0565b611149565b6101a66104b5366004611b2e565b611187565b6008546102f1565b6104ca611467565b6001600160a01b03919091166000908152600660205260409020805460ff1916911515919091179055565b61055160405180610100016040528060006001600160a01b0316815260200160006001600160a01b0316815260200160008152602001600081526020016000815260200160001515815260200160008152602001600081525090565b506001600160a01b03908116600090815260046020818152604092839020835161010081018552815486168152600182015490951691850191909152600281015492840192909252600382015460608401528101546080830152600581015460ff16151560a0830152600681015460c08301526007015460e082015290565b3360009081526006602052604090205460ff16806105f857506000546001600160a01b031633145b61063f5760405162461bcd60e51b81526020600482015260136024820152722ab730baba3437b934bd32b21035b2b2b832b960691b60448201526064015b60405180910390fd5b6001600160a01b038116600090815260046020526040902060050154819060ff1661067c5760405162461bcd60e51b815260040161063690611baa565b6001600160a01b038216600090815260046020526040902060068101546106a690610e1090611beb565b4210156106f55760405162461bcd60e51b815260206004820152601a60248201527f526562616c616e636520636f6f6c646f776e206e6f74206d65740000000000006044820152606401610636565b6106fe83611494565b6107435760405162461bcd60e51b8152602060048201526016602482015275149958985b185b98da5b99c81b9bdd081b995959195960521b6044820152606401610636565b600061074e8461153a565b905060006127108360070154836107659190611c04565b61076f9190611c1b565b9050600061077d8284611c3d565b9050818161078c88838361156d565b426006870155600286015460038701546040516001600160a01b038b16927fcc50724073f0909cdfed772245331f7884a5aedeab4342a9db6bb2940a7ff8a5926107de92918252602082015260400190565b60405180910390a25050505050505050565b6008818154811061080057600080fd5b6000918252602090912001546001600160a01b0316905081565b600760205260009081526040902080546001820154600283015460038401546004850180546001600160a01b039586169694909516949293919261085d90611c50565b80601f016020809104026020016040519081016040528092919081815260200182805461088990611c50565b80156108d65780601f106108ab576101008083540402835291602001916108d6565b820191906000526020600020905b8154815290600101906020018083116108b957829003601f168201915b5050505050905085565b6108e8611467565b6001600160a01b038216600090815260046020526040902060050154829060ff166109255760405162461bcd60e51b815260040161063690611baa565b6127108211156109675760405162461bcd60e51b815260206004820152600d60248201526c496e76616c696420726174696f60981b6044820152606401610636565b506001600160a01b03909116600090815260046020526040902060070155565b6001600160a01b038316600090815260046020526040902060050154839060ff166109c45760405162461bcd60e51b815260040161063690611baa565b6109cc611652565b6001600160a01b038085166000908152600460205260409020805490916109f6911633308761167c565b6001810154610a10906001600160a01b031633308661167c565b83816002016000828254610a249190611beb565b9250508190555082816003016000828254610a3f9190611beb565b90915550610a4f90508385611beb565b816004016000828254610a629190611beb565b909155505060018055505b50505050565b610a7b611467565b6001600160a01b03919091166000908152600560205260409020805460ff1916911515919091179055565b6001600160a01b038216600090815260046020526040812060050154839060ff16610ae35760405162461bcd60e51b815260040161063690611baa565b610aeb611652565b6001600160a01b038416600090815260046020526040812090610b0d8661153a565b905084811015610b585760405162461bcd60e51b8152602060048201526016602482015275496e73756666696369656e74206c697175696469747960501b6044820152606401610636565b600081610b6761271088611c04565b610b719190611c1b565b90506000612710828560020154610b889190611c04565b610b929190611c1b565b90506000612710838660030154610ba99190611c04565b610bb39190611c1b565b90508115610bd1578454610bd1906001600160a01b031633846116e3565b8015610bf0576001850154610bf0906001600160a01b031633836116e3565b81856002016000828254610c049190611c3d565b9250508190555080856003016000828254610c1f9190611c3d565b90915550610c2f90508183611beb565b604080518a8152602081018390529198506001600160a01b038b16917f8cae2c52c9d099dbfef6b86258d70bf3f06b45ecb1500078b4344d891a89ceda910160405180910390a25050505050610c8460018055565b5092915050565b610c93611467565b6001600160a01b038116600090815260046020526040902060050154819060ff16610cd05760405162461bcd60e51b815260040161063690611baa565b6001600160a01b0382166000908152600460205260409020600281015415610d1e57610d1e610d076000546001600160a01b031690565b600283015483546001600160a01b031691906116e3565b600381015415610d5757610d57610d3d6000546001600160a01b031690565b600383015460018401546001600160a01b031691906116e3565b6000600282018190556003820155600501805460ff191690555050565b610d7c611467565b610d866000611719565b565b3360009081526005602052604090205460ff16610dde5760405162461bcd60e51b8152602060048201526014602482015273556e617574686f72697a656420666163746f727960601b6044820152606401610636565b6001600160a01b03831615801590610dfe57506001600160a01b03821615155b8015610e1257506001600160a01b03811615155b610e525760405162461bcd60e51b8152602060048201526011602482015270496e76616c69642061646472657373657360781b6044820152606401610636565b6001600160a01b03831660009081526004602052604090206005015460ff1615610eb65760405162461bcd60e51b81526020600482015260156024820152744d61726b657420616c72656164792065786973747360581b6044820152606401610636565b60408051610100810182526001600160a01b038085168252838116602080840191825260008486018181526060860182815260808701838152600160a089018181524260c08b0190815261138860e08c019081528f8b168089526004998a90528d89209c518d54908d166001600160a01b0319918216178e559a518d8601805491909d16908c1617909b55955160028c0155935160038b01559151958901959095555160058801805491151560ff19909216919091179055516006870155516007909501949094556008805491820181559093527ff3f7a9fe364faab93b216da50a3214154f22a0a2b415b23a84c8169e8b636ee39092018054909216811790915590517fe63e6130091e2155004c4b5ac35e8fb9be704d6637ff3068a8f710ba36c9f41a90610ffe90859085906001600160a01b0392831681529116602082015260400190565b60405180910390a2505050565b6060600880548060200260200160405190810160405280929190818152602001828054801561106357602002820191906000526020600020905b81546001600160a01b03168152600190910190602001808311611045575b5050505050905090565b6003546001600160a01b031633146110bf5760405162461bcd60e51b815260206004820152601560248201527413db9b1e4819d85d195dd85e4818d85b8818d85b1b605a1b6044820152606401610636565b600080806110cf84860186611ca0565b6001600160a01b038316600090815260046020526040902060050154929550909350915060ff166111335760405162461bcd60e51b815260206004820152600e60248201526d125b9d985b1a59081b585c9ad95d60921b6044820152606401610636565b6111408784848985611769565b50505050505050565b611151611467565b6001600160a01b03811661117b57604051631e4fbdf760e01b815260006004820152602401610636565b61118481611719565b50565b6001600160a01b038616600090815260046020526040902060050154869060ff166111c45760405162461bcd60e51b815260040161063690611baa565b6001600160a01b038088166000908152600460205260409020805490916111ee911633308a61167c565b6000338989426040516020016112079493929190611d75565b6040516020818303038152906040528051906020012090506040518060a00160405280336001600160a01b031681526020018a6001600160a01b0316815260200189815260200188815260200186868080601f016020809104026020016040519081016040528093929190818152602001838380828437600092018290525093909452505083815260076020908152604091829020845181546001600160a01b03199081166001600160a01b039283161783559286015160018301805490941691161790915590830151600282015560608301516003820155608083015190915060048201906112f79082611def565b50506003546040516bffffffffffffffffffffffff1960608a901b1660208201526001600160a01b0390911691506306cb89839060340160408051601f19818403018152865483830183526207a120845260016020858101829052845160a08101865233815280820192909252600082860152935192946001600160a01b03909216938c938c93929160608301916113aa91016020808252600690820152651c99599d5b9960d21b604082015260600190565b60405160208183030381529060405281526020016207a1208152506040518763ffffffff1660e01b81526004016113e696959493929190611eae565b600060405180830381600087803b15801561140057600080fd5b505af1158015611414573d6000803e3d6000fd5b5050604080518b8152602081018b90526001600160a01b038d1693507ff9807b97ed99e390e8972244837c8ef890bd74280df664964396a7fc0a9fa4a192500160405180910390a2505050505050505050565b6000546001600160a01b03163314610d865760405163118cdaa760e01b8152336004820152602401610636565b6001600160a01b0381166000908152600460205260408120600281015415806114bf57506003810154155b156114cd5750600092915050565b60006114d88461153a565b905060008161271084600201546114ef9190611c04565b6114f99190611c1b565b905060008360070154821161151d578184600701546115189190611c3d565b61152c565b600784015461152c9083611c3d565b6101f4109695505050505050565b6001600160a01b0381166000908152600460205260408120600381015460028201546115669190611beb565b9392505050565b6001600160a01b038316600090815260046020526040902060028101548311156115eb5760008160020154846115a39190611c3d565b9050816003015481116115e557808260020160008282546115c49190611beb565b92505081905550808260030160008282546115df9190611c3d565b90915550505b50610a6d565b8060030154821115610a6d5760008160030154836116099190611c3d565b90508160020154811161164b578082600301600082825461162a9190611beb565b92505081905550808260020160008282546116459190611c3d565b90915550505b5050505050565b60026001540361167557604051633ee5aeb560e01b815260040160405180910390fd5b6002600155565b6040516001600160a01b038481166024830152838116604483015260648201839052610a6d9186918216906323b872dd906084015b604051602081830303815290604052915060e01b6020820180516001600160e01b03838183161783525050505061180c565b6040516001600160a01b0383811660248301526044820183905261171491859182169063a9059cbb906064016116b1565b505050565b600080546001600160a01b038381166001600160a01b0319831681178455604051919092169283917f8be0079c531659141344cd1fd0a4f28419497f9722a3daafe3b4186f6b6457e09190a35050565b6000858585426040516020016117829493929190611d75565b60408051601f1981840301815291815281516020928301206001600160a01b03881660009081526004909352908220600281018054929450909287926117c9908490611beb565b909155505060405185815282907fdb40310b9247770b8472f4c6211999231f1a969090a9ab3666555198ff619ccc9060200160405180910390a250505050505050565b600080602060008451602086016000885af18061182f576040513d6000823e3d81fd5b50506000513d91508115611847578060011415611854565b6001600160a01b0384163b155b15610a6d57604051635274afe760e01b81526001600160a01b0385166004820152602401610636565b6001600160a01b038116811461118457600080fd5b600080604083850312156118a557600080fd5b82356118b08161187d565b9150602083013580151581146118c557600080fd5b809150509250929050565b6000602082840312156118e257600080fd5b81356115668161187d565b6000602082840312156118ff57600080fd5b5035919050565b6000815180845260005b8181101561192c57602081850181015186830182015201611910565b506000602082860101526020601f19601f83011685010191505092915050565b6001600160a01b03868116825285166020820152604081018490526060810183905260a06080820181905260009061198690830184611906565b979650505050505050565b600080604083850312156119a457600080fd5b82356119af8161187d565b946020939093013593505050565b6000806000606084860312156119d257600080fd5b83356119dd8161187d565b95602085013595506040909401359392505050565b600080600060608486031215611a0757600080fd5b8335611a128161187d565b92506020840135611a228161187d565b91506040840135611a328161187d565b809150509250925092565b602080825282518282018190526000918401906040840190835b81811015611a7e5783516001600160a01b0316835260209384019390920191600101611a57565b509095945050505050565b60008083601f840112611a9b57600080fd5b50813567ffffffffffffffff811115611ab357600080fd5b602083019150836020828501011115611acb57600080fd5b9250929050565b60008060008060608587031215611ae857600080fd5b8435611af38161187d565b935060208501359250604085013567ffffffffffffffff811115611b1657600080fd5b611b2287828801611a89565b95989497509550505050565b60008060008060008060a08789031215611b4757600080fd5b8635611b528161187d565b955060208701359450604087013593506060870135611b708161187d565b9250608087013567ffffffffffffffff811115611b8c57600080fd5b611b9889828a01611a89565b979a9699509497509295939492505050565b6020808252601190820152704d61726b6574206e6f742061637469766560781b604082015260600190565b634e487b7160e01b600052601160045260246000fd5b80820180821115611bfe57611bfe611bd5565b92915050565b8082028115828204841417611bfe57611bfe611bd5565b600082611c3857634e487b7160e01b600052601260045260246000fd5b500490565b81810381811115611bfe57611bfe611bd5565b600181811c90821680611c6457607f821691505b602082108103611c8457634e487b7160e01b600052602260045260246000fd5b50919050565b634e487b7160e01b600052604160045260246000fd5b600080600060608486031215611cb557600080fd5b8335611cc08161187d565b925060208401359150604084013567ffffffffffffffff811115611ce357600080fd5b8401601f81018613611cf457600080fd5b803567ffffffffffffffff811115611d0e57611d0e611c8a565b604051601f8201601f19908116603f0116810167ffffffffffffffff81118282101715611d3d57611d3d611c8a565b604052818152828201602001881015611d5557600080fd5b816020840160208301376000602083830101528093505050509250925092565b6bffffffffffffffffffffffff19606095861b811682529390941b90921660148401526028830152604882015260680190565b601f82111561171457806000526020600020601f840160051c81016020851015611dcf5750805b601f840160051c820191505b8181101561164b5760008155600101611ddb565b815167ffffffffffffffff811115611e0957611e09611c8a565b611e1d81611e178454611c50565b84611da8565b6020601f821160018114611e515760008315611e395750848201515b600019600385901b1c1916600184901b17845561164b565b600084815260208120601f198516915b82811015611e815787850151825560209485019460019092019101611e61565b5084821015611e9f5786840151600019600387901b60f8161c191681555b50505050600190811b01905550565b60c081526000611ec160c0830189611906565b60018060a01b0388166020840152828103604084015285815285876020830137600060208783010152601f19601f870116810190508451606084015260208501511515608084015260208382030160a084015260018060a01b03845116602082015260208401511515604082015260018060a01b036040850151166060820152606084015160a06080830152611f5a60c0830182611906565b9050608085015160a0830152809250505097965050505050505056fea2646970667358221220f79a7a7daab0bf1cd03214e3a7a16215774b0cc90971aa5696ec9abf5cc8014364736f6c634300081a0033",
  "linkReferences": {},
  "deployedLinkReferences": {}
}