{
  "_format": "hh-sol-artifact-1",
  "contractName": "CivicGate",
  "sourceName": "contracts/CivicGate.sol",
  "abi": [
    {
      "inputs": [
        {
          "internalType": "address",
          "name": "_verifierKey",
          "type": "address"
        }
      ],
      "stateMutability": "nonpayable",
      "type": "constructor"
    },
    {
      "anonymous": false,
      "inputs": [
        {
          "indexed": true,
          "internalType": "address",
          "name": "user",
          "type": "address"
        },
        {
          "indexed": false,
          "internalType": "bytes32",
          "name": "proofHash",
          "type": "bytes32"
        }
      ],
      "name": "ProofVerified",
      "type": "event"
    },
    {
      "inputs": [
        {
          "internalType": "bytes",
          "name": "civicProof",
          "type": "bytes"
        },
        {
          "internalType": "address",
          "name": "user",
          "type": "address"
        }
      ],
      "name": "check",
      "outputs": [
        {
          "internalType": "bool",
          "name": "",
          "type": "bool"
        }
      ],
      "stateMutability": "nonpayable",
      "type": "function"
    },
    {
      "inputs": [
        {
          "internalType": "bytes32",
          "name": "",
          "type": "bytes32"
        }
      ],
      "name": "usedProofs",
      "outputs": [
        {
          "internalType": "bool",
          "name": "",
          "type": "bool"
        }
      ],
      "stateMutability": "view",
      "type": "function"
    },
    {
      "inputs": [],
      "name": "verifierKey",
      "outputs": [
        {
          "internalType": "address",
          "name": "",
          "type": "address"
        }
      ],
      "stateMutability": "view",
      "type": "function"
    }
  ],
  "bytecode": "0x6080604052348015600f57600080fd5b50604051610333380380610333833981016040819052602c916050565b600080546001600160a01b0319166001600160a01b0392909216919091179055607e565b600060208284031215606157600080fd5b81516001600160a01b0381168114607757600080fd5b9392505050565b6102a68061008d6000396000f3fe608060405234801561001057600080fd5b50600436106100415760003560e01c80632e40661914610046578063b6299fda1461006e578063c30a0f2514610099575b600080fd5b6100596100543660046101b5565b6100bc565b60405190151581526020015b60405180910390f35b600054610081906001600160a01b031681565b6040516001600160a01b039091168152602001610065565b6100596100a7366004610247565b60016020526000908152604090205460ff1681565b60008281036100cd575060016101ae565b600084846040516100df929190610260565b604080519182900390912060008181526001602052919091205490915060ff16156101455760405162461bcd60e51b8152602060048201526012602482015271141c9bdbd988185b1c9958591e481d5cd95960721b604482015260640160405180910390fd5b602084108015906101aa57600082815260016020818152604092839020805460ff191690921790915590518381526001600160a01b038616917f0565033f3973b38ac07b3b39f05c0bcfa1449a22d6fd347fdc63c7a8370e106a910160405180910390a25b9150505b9392505050565b6000806000604084860312156101ca57600080fd5b833567ffffffffffffffff8111156101e157600080fd5b8401601f810186136101f257600080fd5b803567ffffffffffffffff81111561020957600080fd5b86602082840101111561021b57600080fd5b6020918201945092508401356001600160a01b038116811461023c57600080fd5b809150509250925092565b60006020828403121561025957600080fd5b5035919050565b818382376000910190815291905056fea264697066735822122055bb393a595d5b9f7c7ebdbbcd62a23733057082db0b3dd658f3f0d039bc43ea64736f6c634300081a0033",
  "linkReferences": {},
  "deployedLinkReferences": {}
}