{
  "_format": "hh-sol-artifact-1",
  "contractName": "SystemContract",
  "sourceName": "@zetachain/protocol-contracts/contracts/zevm/SystemContract.sol",
  "abi": [
    {
      "inputs": [
        {
          "internalType": "address",
          "name": "wzeta_",
          "type": "address"
        },
        {
          "internalType": "address",
          "name": "uniswapv2Factory_",
          "type": "address"
        },
        {
          "internalType": "address",
          "name": "uniswapv2Router02_",
          "type": "address"
        }
      ],
      "stateMutability": "nonpayable",
      "type": "constructor"
    },
    {
      "inputs": [],
      "name": "CallerIsNotFungibleModule",
      "type": "error"
    },
    {
      "inputs": [],
      "name": "CantBeIdenticalAddresses",
      "type": "error"
    },
    {
      "inputs": [],
      "name": "CantBeZeroAddress",
      "type": "error"
    },
    {
      "inputs": [],
      "name": "InvalidTarget",
      "type": "error"
    },
    {
      "inputs": [],
      "name": "ZeroAddress",
      "type": "error"
    },
    {
      "anonymous": false,
      "inputs": [
        {
          "indexed": false,
          "internalType": "address",
          "name": "",
          "type": "address"
        }
      ],
      "name": "SetConnectorZEVM",
      "type": "event"
    },
    {
      "anonymous": false,
      "inputs": [
        {
          "indexed": false,
          "internalType": "uint256",
          "name": "",
          "type": "uint256"
        },
        {
          "indexed": false,
          "internalType": "address",
          "name": "",
          "type": "address"
        }
      ],
      "name": "SetGasCoin",
      "type": "event"
    },
    {
      "anonymous": false,
      "inputs": [
        {
          "indexed": false,
          "internalType": "uint256",
          "name": "",
          "type": "uint256"
        },
        {
          "indexed": false,
          "internalType": "uint256",
          "name": "",
          "type": "uint256"
        }
      ],
      "name": "SetGasPrice",
      "type": "event"
    },
    {
      "anonymous": false,
      "inputs": [
        {
          "indexed": false,
          "internalType": "uint256",
          "name": "",
          "type": "uint256"
        },
        {
          "indexed": false,
          "internalType": "address",
          "name": "",
          "type": "address"
        }
      ],
      "name": "SetGasZetaPool",
      "type": "event"
    },
    {
      "anonymous": false,
      "inputs": [
        {
          "indexed": false,
          "internalType": "address",
          "name": "",
          "type": "address"
        }
      ],
      "name": "SetWZeta",
      "type": "event"
    },
    {
      "anonymous": false,
      "inputs": [],
      "name": "SystemContractDeployed",
      "type": "event"
    },
    {
      "inputs": [],
      "name": "FUNGIBLE_MODULE_ADDRESS",
      "outputs": [
        {
          "internalType": "address",
          "name": "",
          "type": "address"
        }
      ],
      "stateMutability": "view",
      "type": "function"
    },
    {
      "inputs": [
        {
          "components": [
            {
              "internalType": "bytes",
              "name": "origin",
              "type": "bytes"
            },
            {
              "internalType": "address",
              "name": "sender",
              "type": "address"
            },
            {
              "internalType": "uint256",
              "name": "chainID",
              "type": "uint256"
            }
          ],
          "internalType": "struct zContext",
          "name": "context",
          "type": "tuple"
        },
        {
          "internalType": "address",
          "name": "zrc20",
          "type": "address"
        },
        {
          "internalType": "uint256",
          "name": "amount",
          "type": "uint256"
        },
        {
          "internalType": "address",
          "name": "target",
          "type": "address"
        },
        {
          "internalType": "bytes",
          "name": "message",
          "type": "bytes"
        }
      ],
      "name": "depositAndCall",
      "outputs": [],
      "stateMutability": "nonpayable",
      "type": "function"
    },
    {
      "inputs": [
        {
          "internalType": "uint256",
          "name": "",
          "type": "uint256"
        }
      ],
      "name": "gasCoinZRC20ByChainId",
      "outputs": [
        {
          "internalType": "address",
          "name": "",
          "type": "address"
        }
      ],
      "stateMutability": "view",
      "type": "function"
    },
    {
      "inputs": [
        {
          "internalType": "uint256",
          "name": "",
          "type": "uint256"
        }
      ],
      "name": "gasPriceByChainId",
      "outputs": [
        {
          "internalType": "uint256",
          "name": "",
          "type": "uint256"
        }
      ],
      "stateMutability": "view",
      "type": "function"
    },
    {
      "inputs": [
        {
          "internalType": "uint256",
          "name": "",
          "type": "uint256"
        }
      ],
      "name": "gasZetaPoolByChainId",
      "outputs": [
        {
          "internalType": "address",
          "name": "",
          "type": "address"
        }
      ],
      "stateMutability": "view",
      "type": "function"
    },
    {
      "inputs": [
        {
          "internalType": "address",
          "name": "addr",
          "type": "address"
        }
      ],
      "name": "setConnectorZEVMAddress",
      "outputs": [],
      "stateMutability": "nonpayable",
      "type": "function"
    },
    {
      "inputs": [
        {
          "internalType": "uint256",
          "name": "chainID",
          "type": "uint256"
        },
        {
          "internalType": "address",
          "name": "zrc20",
          "type": "address"
        }
      ],
      "name": "setGasCoinZRC20",
      "outputs": [],
      "stateMutability": "nonpayable",
      "type": "function"
    },
    {
      "inputs": [
        {
          "internalType": "uint256",
          "name": "chainID",
          "type": "uint256"
        },
        {
          "internalType": "uint256",
          "name": "price",
          "type": "uint256"
        }
      ],
      "name": "setGasPrice",
      "outputs": [],
      "stateMutability": "nonpayable",
      "type": "function"
    },
    {
      "inputs": [
        {
          "internalType": "uint256",
          "name": "chainID",
          "type": "uint256"
        },
        {
          "internalType": "address",
          "name": "erc20",
          "type": "address"
        }
      ],
      "name": "setGasZetaPool",
      "outputs": [],
      "stateMutability": "nonpayable",
      "type": "function"
    },
    {
      "inputs": [
        {
          "internalType": "address",
          "name": "addr",
          "type": "address"
        }
      ],
      "name": "setWZETAContractAddress",
      "outputs": [],
      "stateMutability": "nonpayable",
      "type": "function"
    },
    {
      "inputs": [],
      "name": "uniswapv2FactoryAddress",
      "outputs": [
        {
          "internalType": "address",
          "name": "",
          "type": "address"
        }
      ],
      "stateMutability": "view",
      "type": "function"
    },
    {
      "inputs": [
        {
          "internalType": "address",
          "name": "factory",
          "type": "address"
        },
        {
          "internalType": "address",
          "name": "tokenA",
          "type": "address"
        },
        {
          "internalType": "address",
          "name": "tokenB",
          "type": "address"
        }
      ],
      "name": "uniswapv2PairFor",
      "outputs": [
        {
          "internalType": "address",
          "name": "pair",
          "type": "address"
        }
      ],
      "stateMutability": "pure",
      "type": "function"
    },
    {
      "inputs": [],
      "name": "uniswapv2Router02Address",
      "outputs": [
        {
          "internalType": "address",
          "name": "",
          "type": "address"
        }
      ],
      "stateMutability": "view",
      "type": "function"
    },
    {
      "inputs": [],
      "name": "wZetaContractAddress",
      "outputs": [
        {
          "internalType": "address",
          "name": "",
          "type": "address"
        }
      ],
      "stateMutability": "view",
      "type": "function"
    },
    {
      "inputs": [],
      "name": "zetaConnectorZEVMAddress",
      "outputs": [
        {
          "internalType": "address",
          "name": "",
          "type": "address"
        }
      ],
      "stateMutability": "view",
      "type": "function"
    }
  ],
  "bytecode": "0x60c060405234801561001057600080fd5b50604051610cf9380380610cf983398101604081905261002f916100db565b3373735b14bb79463307aacbed86daf3322b1e6226ab1461006357604051632b2add3d60e01b815260040160405180910390fd5b600380546001600160a01b0319166001600160a01b0385811691909117909155828116608052811660a0526040517f80699e81136d69cb8367ad52a994e25c722a86da654b561d0c14b61a777e7ac590600090a150505061011e565b80516001600160a01b03811681146100d657600080fd5b919050565b6000806000606084860312156100f057600080fd5b6100f9846100bf565b9250610107602085016100bf565b9150610115604085016100bf565b90509250925092565b60805160a051610baf61014a60003960006101b1015260008181610278015261039d0152610baf6000f3fe608060405234801561001057600080fd5b50600436106100f55760003560e01c806397770dff11610097578063c63585cc11610066578063c63585cc14610232578063d7fd7afb14610245578063d936a01214610273578063ee2815ba1461029a57600080fd5b806397770dff146101e6578063a7cb0507146101f9578063c39aca371461020c578063c62178ac1461021f57600080fd5b8063513a9c05116100d3578063513a9c0514610170578063569541b914610199578063842da36d146101ac57806391dd645f146101d357600080fd5b80630be15547146100fa5780631f0e251b146101405780633ce4a5bc14610155575b600080fd5b6101236101083660046108bf565b6001602052600090815260409020546001600160a01b031681565b6040516001600160a01b0390911681526020015b60405180910390f35b61015361014e3660046108f4565b6102ad565b005b61012373735b14bb79463307aacbed86daf3322b1e6226ab81565b61012361017e3660046108bf565b6002602052600090815260409020546001600160a01b031681565b600354610123906001600160a01b031681565b6101237f000000000000000000000000000000000000000000000000000000000000000081565b6101536101e1366004610916565b61035d565b6101536101f43660046108f4565b610436565b610153610207366004610942565b6104df565b61015361021a366004610964565b610561565b600454610123906001600160a01b031681565b610123610240366004610a34565b6106c8565b6102656102533660046108bf565b60006020819052908152604090205481565b604051908152602001610137565b6101237f000000000000000000000000000000000000000000000000000000000000000081565b6101536102a8366004610916565b6107a1565b3373735b14bb79463307aacbed86daf3322b1e6226ab146102e157604051632b2add3d60e01b815260040160405180910390fd5b6001600160a01b0381166103085760405163d92e233d60e01b815260040160405180910390fd5b600480546001600160a01b0319166001600160a01b0383169081179091556040519081527f3ade88e3922d64780e1bf4460d364c2970b69da813f9c0c07a1c187b5647636c906020015b60405180910390a150565b3373735b14bb79463307aacbed86daf3322b1e6226ab1461039157604051632b2add3d60e01b815260040160405180910390fd5b6003546000906103cc907f0000000000000000000000000000000000000000000000000000000000000000906001600160a01b0316846106c8565b60008481526002602090815260409182902080546001600160a01b0319166001600160a01b0385169081179091558251878152918201529192507f0ecec485166da6139b13bb7e033e9446e2d35348e80ebf1180d4afe2dba1704e910160405180910390a1505050565b3373735b14bb79463307aacbed86daf3322b1e6226ab1461046a57604051632b2add3d60e01b815260040160405180910390fd5b6001600160a01b0381166104915760405163d92e233d60e01b815260040160405180910390fd5b600380546001600160a01b0319166001600160a01b0383169081179091556040519081527fdba79d534382d1a8ae108e4c8ecb27c6ae42ab8b91d44eedf88bd329f3868d5e90602001610352565b3373735b14bb79463307aacbed86daf3322b1e6226ab1461051357604051632b2add3d60e01b815260040160405180910390fd5b6000828152602081815260409182902083905581518481529081018390527f49f492222906ac486c3c1401fa545626df1f0c0e5a77a05597ea2ed66af9850d91015b60405180910390a15050565b3373735b14bb79463307aacbed86daf3322b1e6226ab1461059557604051632b2add3d60e01b815260040160405180910390fd5b6001600160a01b03831673735b14bb79463307aacbed86daf3322b1e6226ab14806105c857506001600160a01b03831630145b156105e65760405163416aebb560e11b815260040160405180910390fd5b6040516311f9fbc960e21b81526001600160a01b038481166004830152602482018690528616906347e7ef24906044016020604051808303816000875af1158015610635573d6000803e3d6000fd5b505050506040513d601f19601f820116820180604052508101906106599190610a77565b50604051636f218ab760e11b81526001600160a01b0384169063de43156e9061068e9089908990899088908890600401610ac2565b600060405180830381600087803b1580156106a857600080fd5b505af11580156106bc573d6000803e3d6000fd5b50505050505050505050565b60008060006106d78585610834565b6040516bffffffffffffffffffffffff19606084811b8216602084015283901b166034820152919350915086906048016040516020818303038152906040528051906020012060405160200161077f9291906001600160f81b0319815260609290921b6bffffffffffffffffffffffff1916600183015260158201527f96e8ac4277198ff8b6f785478aa9a39f403cb768dd02cbee326c3e7da348845f603582015260550190565b60408051601f1981840301815291905280516020909101209695505050505050565b3373735b14bb79463307aacbed86daf3322b1e6226ab146107d557604051632b2add3d60e01b815260040160405180910390fd5b60008281526001602090815260409182902080546001600160a01b0319166001600160a01b0385169081179091558251858152918201527fd1b36d30f6248e97c473b4d1348ca164a4ef6759022f54a58ec200326c39c45d9101610555565b600080826001600160a01b0316846001600160a01b0316036108695760405163658f3e7f60e11b815260040160405180910390fd5b826001600160a01b0316846001600160a01b03161061088957828461088c565b83835b90925090506001600160a01b0382166108b857604051633c5a83ed60e11b815260040160405180910390fd5b9250929050565b6000602082840312156108d157600080fd5b5035919050565b80356001600160a01b03811681146108ef57600080fd5b919050565b60006020828403121561090657600080fd5b61090f826108d8565b9392505050565b6000806040838503121561092957600080fd5b82359150610939602084016108d8565b90509250929050565b6000806040838503121561095557600080fd5b50508035926020909101359150565b60008060008060008060a0878903121561097d57600080fd5b863567ffffffffffffffff81111561099457600080fd5b87016060818a0312156109a657600080fd5b95506109b4602088016108d8565b9450604087013593506109c9606088016108d8565b9250608087013567ffffffffffffffff8111156109e557600080fd5b8701601f810189136109f657600080fd5b803567ffffffffffffffff811115610a0d57600080fd5b896020828401011115610a1f57600080fd5b60208201935080925050509295509295509295565b600080600060608486031215610a4957600080fd5b610a52846108d8565b9250610a60602085016108d8565b9150610a6e604085016108d8565b90509250925092565b600060208284031215610a8957600080fd5b8151801515811461090f57600080fd5b81835281816020850137506000828201602090810191909152601f909101601f19169091010190565b6080815260008635601e19883603018112610adc57600080fd5b870160208101903567ffffffffffffffff811115610af957600080fd5b803603821315610b0857600080fd5b60606080850152610b1d60e085018284610a99565b91506001600160a01b039050610b3560208a016108d8565b1660a0840152604088013560c08401526001600160a01b03871660208401528560408401528281036060840152610b6d818587610a99565b9897505050505050505056fea26469706673582212200cfaeb5d2a43eabf202e995c64ee66550c1c72f50d9e4508a816143e0982aeeb64736f6c634300081a0033",
  "linkReferences": {},
  "deployedLinkReferences": {}
}