{
  "_format": "hh-sol-artifact-1",
  "contractName": "MarketFactory",
  "sourceName": "contracts/MarketFactory.sol",
  "abi": [
    {
      "inputs": [
        {
          "internalType": "address",
          "name": "_civicGate",
          "type": "address"
        },
        {
          "internalType": "address",
          "name": "_dragonSwapManager",
          "type": "address"
        }
      ],
      "stateMutability": "nonpayable",
      "type": "constructor"
    },
    {
      "anonymous": false,
      "inputs": [
        {
          "indexed": true,
          "internalType": "address",
          "name": "market",
          "type": "address"
        },
        {
          "indexed": true,
          "internalType": "address",
          "name": "creator",
          "type": "address"
        },
        {
          "indexed": false,
          "internalType": "string",
          "name": "question",
          "type": "string"
        },
        {
          "indexed": false,
          "internalType": "uint64",
          "name": "endTime",
          "type": "uint64"
        },
        {
          "indexed": false,
          "internalType": "bytes32",
          "name": "civicRule",
          "type": "bytes32"
        },
        {
          "indexed": false,
          "internalType": "address",
          "name": "payoutToken",
          "type": "address"
        }
      ],
      "name": "MarketCreated",
      "type": "event"
    },
    {
      "inputs": [],
      "name": "civicGate",
      "outputs": [
        {
          "internalType": "address",
          "name": "",
          "type": "address"
        }
      ],
      "stateMutability": "view",
      "type": "function"
    },
    {
      "inputs": [
        {
          "internalType": "string",
          "name": "question",
          "type": "string"
        },
        {
          "internalType": "uint64",
          "name": "endTime",
          "type": "uint64"
        },
        {
          "internalType": "address",
          "name": "payoutToken",
          "type": "address"
        },
        {
          "internalType": "bytes32",
          "name": "civicRule",
          "type": "bytes32"
        },
        {
          "internalType": "uint256",
          "name": "initialLiquidity",
          "type": "uint256"
        }
      ],
      "name": "createMarket",
      "outputs": [
        {
          "internalType": "address",
          "name": "",
          "type": "address"
        }
      ],
      "stateMutability": "nonpayable",
      "type": "function"
    },
    {
      "inputs": [],
      "name": "dragonSwapManager",
      "outputs": [
        {
          "internalType": "address",
          "name": "",
          "type": "address"
        }
      ],
      "stateMutability": "view",
      "type": "function"
    },
    {
      "inputs": [
        {
          "internalType": "uint256",
          "name": "offset",
          "type": "uint256"
        },
        {
          "internalType": "uint256",
          "name": "limit",
          "type": "uint256"
        }
      ],
      "name": "getMarkets",
      "outputs": [
        {
          "internalType": "address[]",
          "name": "",
          "type": "address[]"
        }
      ],
      "stateMutability": "view",
      "type": "function"
    },
    {
      "inputs": [],
      "name": "getMarketsCount",
      "outputs": [
        {
          "internalType": "uint256",
          "name": "",
          "type": "uint256"
        }
      ],
      "stateMutability": "view",
      "type": "function"
    },
    {
      "inputs": [
        {
          "internalType": "address",
          "name": "",
          "type": "address"
        }
      ],
      "name": "isMarket",
      "outputs": [
        {
          "internalType": "bool",
          "name": "",
          "type": "bool"
        }
      ],
      "stateMutability": "view",
      "type": "function"
    },
    {
      "inputs": [
        {
          "internalType": "uint256",
          "name": "",
          "type": "uint256"
        }
      ],
      "name": "markets",
      "outputs": [
        {
          "internalType": "address",
          "name": "",
          "type": "address"
        }
      ],
      "stateMutability": "view",
      "type": "function"
    },
    {
      "inputs": [],
      "name": "owner",
      "outputs": [
        {
          "internalType": "address",
          "name": "",
          "type": "address"
        }
      ],
      "stateMutability": "view",
      "type": "function"
    }
  ],
  "bytecode": "0x6080604052348015600f57600080fd5b506040516123d93803806123d9833981016040819052602c916087565b600080546001600160a01b039384166001600160a01b031991821617909155600180549290931691811691909117909155600280549091163317905560b5565b80516001600160a01b0381168114608257600080fd5b919050565b60008060408385031215609957600080fd5b60a083606c565b915060ac60208401606c565b90509250929050565b612315806100c46000396000f3fe608060405234801561001057600080fd5b50600436106100885760003560e01c80638da5cb5b1161005b5780638da5cb5b14610121578063b1283e7714610134578063bf1bcee214610147578063ed6ff6f01461015a57600080fd5b806327fa35c31461008d5780636ec934da146100a357806380968d48146100d657806384bda8e1146100f6575b600080fd5b6004546040519081526020015b60405180910390f35b6100c66100b1366004610526565b60036020526000908152604090205460ff1681565b604051901515815260200161009a565b6100e96100e4366004610548565b61016d565b60405161009a919061056a565b600054610109906001600160a01b031681565b6040516001600160a01b03909116815260200161009a565b600254610109906001600160a01b031681565b6101096101423660046105b6565b6102a3565b600154610109906001600160a01b031681565b6101096101683660046105e7565b6102cd565b60045460609083106101bd5760405162461bcd60e51b81526020600482015260146024820152734f6666736574206f7574206f6620626f756e647360601b60448201526064015b60405180910390fd5b60006101c983856106a3565b6004549091508111156101db57506004545b60006101e785836106b6565b67ffffffffffffffff8111156101ff576101ff6106c9565b604051908082528060200260200182016040528015610228578160200160208202803683370190505b509050845b828110156102985760048181548110610248576102486106df565b6000918252602090912001546001600160a01b03168261026888846106b6565b81518110610278576102786106df565b6001600160a01b039092166020928302919091019091015260010161022d565b509150505b92915050565b600481815481106102b357600080fd5b6000918252602090912001546001600160a01b0316905081565b6000428567ffffffffffffffff161161031b5760405162461bcd60e51b815260206004820152601060248201526f496e76616c696420656e642074696d6560801b60448201526064016101b4565b6000821161035f5760405162461bcd60e51b8152602060048201526011602482015270496e76616c6964206c697175696469747960781b60448201526064016101b4565b600080546001546040518a928a928a928a928a926001600160a01b0391821692911690339061038d906104fd565b61039e98979695949392919061071e565b604051809103906000f0801580156103ba573d6000803e3d6000fd5b506001600160a01b038082166000818152600360205260408120805460ff1916600190811790915560048054808301825592527f8a35acfbc15ff81a39ae7d344fd709f28e8600b4aa8c65c6b64bfe7fe36bd19b90910180546001600160a01b031916909217909155549192508291161561049e57600154604051633dda080960e11b81526001600160a01b03838116600483018190528982166024840152604483015290911690637bb4101290606401600060405180830381600087803b15801561048557600080fd5b505af1158015610499573d6000803e3d6000fd5b505050505b336001600160a01b0316816001600160a01b03167fa8c97f6131e4ea829029808bb4201a3e4477ffd47f40b47f27214eea1ef981228b8b8b8a8c6040516104e995949392919061077b565b60405180910390a398975050505050505050565b611b20806107c083390190565b80356001600160a01b038116811461052157600080fd5b919050565b60006020828403121561053857600080fd5b6105418261050a565b9392505050565b6000806040838503121561055b57600080fd5b50508035926020909101359150565b602080825282518282018190526000918401906040840190835b818110156105ab5783516001600160a01b0316835260209384019390920191600101610584565b509095945050505050565b6000602082840312156105c857600080fd5b5035919050565b803567ffffffffffffffff8116811461052157600080fd5b60008060008060008060a0878903121561060057600080fd5b863567ffffffffffffffff81111561061757600080fd5b8701601f8101891361062857600080fd5b803567ffffffffffffffff81111561063f57600080fd5b89602082840101111561065157600080fd5b6020918201975095506106659088016105cf565b93506106736040880161050a565b959894975092956060810135946080909101359350915050565b634e487b7160e01b600052601160045260246000fd5b8082018082111561029d5761029d61068d565b8181038181111561029d5761029d61068d565b634e487b7160e01b600052604160045260246000fd5b634e487b7160e01b600052603260045260246000fd5b81835281816020850137506000828201602090810191909152601f909101601f19169091010190565b60e08152600061073260e083018a8c6106f5565b67ffffffffffffffff989098166020830152506001600160a01b03958616604082015260608101949094529184166080840152831660a083015290911660c09091015292915050565b60808152600061078f6080830187896106f5565b67ffffffffffffffff9590951660208301525060408101929092526001600160a01b03166060909101529291505056fe608060405234801561001057600080fd5b50604051611b20380380611b2083398101604081905261002f9161023f565b6001600055426001600160401b038716116100845760405162461bcd60e51b815260206004820152601060248201526f496e76616c696420656e642074696d6560801b60448201526064015b60405180910390fd5b6001600160a01b0385166100da5760405162461bcd60e51b815260206004820152601460248201527f496e76616c6964207061796f757420746f6b656e000000000000000000000000604482015260640161007b565b6001600160a01b0381166101225760405162461bcd60e51b815260206004820152600f60248201526e24b73b30b634b21031b932b0ba37b960891b604482015260640161007b565b6001600160a01b03821661016a5760405162461bcd60e51b815260206004820152600f60248201526e24b73b30b634b21036b0b730b3b2b960891b604482015260640161007b565b600161017688826103f2565b50600280546001600160a01b0396871668010000000000000000026001600160e01b03199091166001600160401b039098169790971796909617909555600392909255600580549184166001600160a01b0319928316179055600680549284169282169290921790915560048054939092169216919091179055506104b0565b634e487b7160e01b600052604160045260246000fd5b80516001600160401b038116811461022357600080fd5b919050565b80516001600160a01b038116811461022357600080fd5b600080600080600080600060e0888a03121561025a57600080fd5b87516001600160401b0381111561027057600080fd5b8801601f81018a1361028157600080fd5b80516001600160401b0381111561029a5761029a6101f6565b604051601f8201601f19908116603f011681016001600160401b03811182821017156102c8576102c86101f6565b6040528181528282016020018c10156102e057600080fd5b60005b828110156102ff576020818501810151838301820152016102e3565b5060006020838301015280995050505061031b6020890161020c565b955061032960408901610228565b6060890151909550935061033f60808901610228565b925061034d60a08901610228565b915061035b60c08901610228565b905092959891949750929550565b600181811c9082168061037d57607f821691505b60208210810361039d57634e487b7160e01b600052602260045260246000fd5b50919050565b601f8211156103ed57806000526020600020601f840160051c810160208510156103ca5750805b601f840160051c820191505b818110156103ea57600081556001016103d6565b50505b505050565b81516001600160401b0381111561040b5761040b6101f6565b61041f816104198454610369565b846103a3565b6020601f821160018114610453576000831561043b5750848201515b600019600385901b1c1916600184901b1784556103ea565b600084815260208120601f198516915b828110156104835787850151825560209485019460019092019101610463565b50848210156104a15786840151600019600387901b60f8161c191681555b50505050600190811b01905550565b611661806104bf6000396000f3fe608060405234801561001057600080fd5b506004361061014d5760003560e01c806368179862116100c3578063be040fb01161007c578063be040fb01461032c578063bf1bcee214610334578063db2e21bc14610347578063dbb3f5371461034f578063dfbf53ae14610373578063ee9b0cd51461039457600080fd5b806368179862146102c25780636c044e49146102d757806384bda8e1146102e05780639e8fbd59146102f3578063a0270dbc14610306578063af8830651461031957600080fd5b806327c7ff611161011557806327c7ff61146101de5780633197cbb6146101e75780633fad9ae0146102125780634c5be574146102275780634efa82b6146102445780635b7c2dad1461025e57600080fd5b806302d05d3f146101525780630ba36dcd1461018257806315770f92146101b057806316953f02146101b957806323341a05146101c2575b600080fd5b600454610165906001600160a01b031681565b6040516001600160a01b0390911681526020015b60405180910390f35b6101a26101903660046111b6565b60086020526000908152604090205481565b604051908152602001610179565b6101a2600b5481565b6101a260095481565b6101ca6103bf565b604051610179989796959493929190611256565b6101a2600a5481565b6002546101fa906001600160401b031681565b6040516001600160401b039091168152602001610179565b61021a6104c9565b60405161017991906112bf565b61022f610557565b60408051928352602083019190915201610179565b60025461016590600160401b90046001600160a01b031681565b6102a761026c3660046111b6565b6001600160a01b0316600081815260076020908152604080832083805282528083205460018452818420549484526008909252909120549092565b60408051938452602084019290925290820152606001610179565b6102d56102d0366004611329565b6105af565b005b6101a260035481565b600554610165906001600160a01b031681565b6101a2610301366004611397565b6106b1565b6102d56103143660046113b0565b6107eb565b6102d56103273660046113cb565b61093d565b6102d56109da565b600654610165906001600160a01b031681565b6102d5610c23565b60065461036390600160a01b900460ff1681565b6040519015158152602001610179565b60065461038790600160a81b900460ff1681565b6040516101799190611424565b6101a26103a2366004611438565b600760209081526000928352604080842090915290825290205481565b606060008060008060008060006001600260009054906101000a90046001600160401b0316600260089054906101000a90046001600160a01b0316600660149054906101000a900460ff16600660159054906101000a900460ff16600954600a54600b5487805461042f9061146b565b80601f016020809104026020016040519081016040528092919081815260200182805461045b9061146b565b80156104a85780601f1061047d576101008083540402835291602001916104a8565b820191906000526020600020905b81548152906001019060200180831161048b57829003601f168201915b50505050509750975097509750975097509750975097509091929394959697565b600180546104d69061146b565b80601f01602080910402602001604051908101604052809291908181526020018280546105029061146b565b801561054f5780601f106105245761010080835404028352916020019161054f565b820191906000526020600020905b81548152906001019060200180831161053257829003601f168201915b505050505081565b6000806000600a5460095461056c91906114bb565b90508060000361058157506032928392509050565b80600954606461059191906114ce565b61059b91906114e5565b92506105a8836064611507565b9150509091565b6002546001600160401b03164211156106005760405162461bcd60e51b815260206004820152600e60248201526d13585c9ad95d08195e1c1a5c995960921b60448201526064015b60405180910390fd5b600654600160a01b900460ff161561062a5760405162461bcd60e51b81526004016105f79061151a565b6004546001600160a01b031633148061064d57506006546001600160a01b031633145b61068a5760405162461bcd60e51b815260206004820152600e60248201526d139bdd08185d5d1a1bdc9a5e995960921b60448201526064016105f7565b610692610d7f565b6106a0838686858533610da9565b6106aa6001600055565b5050505050565b600654600090600160a01b900460ff166107035760405162461bcd60e51b815260206004820152601360248201527213585c9ad95d081b9bdd081c995cdbdb1d9959606a1b60448201526064016105f7565b6006546001600160a01b0316331461075d5760405162461bcd60e51b815260206004820152601760248201527f4f6e6c79206d616e616765722063616e20756e77696e6400000000000000000060448201526064016105f7565b600b548211156107a85760405162461bcd60e51b8152602060048201526016602482015275496e73756666696369656e74206c697175696469747960501b60448201526064016105f7565b81600b60008282546107ba9190611507565b90915550506006546002546107e3916001600160a01b03600160401b9092048216911684611091565b50805b919050565b6002546001600160401b0316421161083a5760405162461bcd60e51b815260206004820152601260248201527113585c9ad95d081b9bdd08195e1c1a5c995960721b60448201526064016105f7565b600654600160a01b900460ff16156108645760405162461bcd60e51b81526004016105f79061151a565b6004546001600160a01b031633148061088757506006546001600160a01b031633145b6108c45760405162461bcd60e51b815260206004820152600e60248201526d139bdd08185d5d1a1bdc9a5e995960921b60448201526064016105f7565b60068054600160a01b60ff60a01b1982168117835583929161ffff60a01b191617600160a81b8360018111156108fc576108fc61121e565b02179055507fcb06b84a152f7fe5c230b7a607ec296812d6f2656f32720215281f7eefb9a1078142604051610932929190611543565b60405180910390a150565b6002546001600160401b03164211156109895760405162461bcd60e51b815260206004820152600e60248201526d13585c9ad95d08195e1c1a5c995960921b60448201526064016105f7565b600654600160a01b900460ff16156109b35760405162461bcd60e51b81526004016105f79061151a565b6109bb610d7f565b6109ca33858585856000610da9565b6109d46001600055565b50505050565b600654600160a01b900460ff16610a295760405162461bcd60e51b815260206004820152601360248201527213585c9ad95d081b9bdd081c995cdbdb1d9959606a1b60448201526064016105f7565b610a31610d7f565b3360009081526007602052604081206006548290600160a81b900460ff166001811115610a6057610a6061121e565b6001811115610a7157610a7161121e565b815260200190815260200160002054905060008111610ac65760405162461bcd60e51b81526020600482015260116024820152704e6f2077696e6e696e672073686172657360781b60448201526064016105f7565b600080600654600160a81b900460ff166001811115610ae757610ae761121e565b14610af457600a54610af8565b6009545b905060008111610b4a5760405162461bcd60e51b815260206004820152601760248201527f4e6f2077696e6e696e672073686172657320657869737400000000000000000060448201526064016105f7565b600081600b5484610b5b91906114ce565b610b6591906114e5565b33600090815260076020526040812060065492935090918290600160a81b900460ff166001811115610b9957610b9961121e565b6001811115610baa57610baa61121e565b8152602081019190915260400160002055600254610bd990600160401b90046001600160a01b03163383611091565b604080518281526020810185905233917ff3a670cd3af7d64b488926880889d08a8585a138ff455227af6737339a1ec262910160405180910390a2505050610c216001600055565b565b6004546001600160a01b03163314610c6c5760405162461bcd60e51b815260206004820152600c60248201526b27b7363c9031b932b0ba37b960a11b60448201526064016105f7565b600254610c85906001600160401b031662278d0061155e565b6001600160401b03164211610cdc5760405162461bcd60e51b815260206004820152601760248201527f546f6f206561726c7920666f7220656d657267656e637900000000000000000060448201526064016105f7565b6002546040516370a0823160e01b8152306004820152600091600160401b90046001600160a01b0316906370a0823190602401602060405180830381865afa158015610d2c573d6000803e3d6000fd5b505050506040513d601f19601f82011682018060405250810190610d50919061157d565b90508015610d7c57600454600254610d7c916001600160a01b03600160401b9092048216911683611091565b50565b600260005403610da257604051633ee5aeb560e01b815260040160405180910390fd5b6002600055565b60008411610dea5760405162461bcd60e51b815260206004820152600e60248201526d125b9d985b1a5908185b5bdd5b9d60921b60448201526064016105f7565b6001600160a01b038616610e2f5760405162461bcd60e51b815260206004820152600c60248201526b24b73b30b634b2103ab9b2b960a11b60448201526064016105f7565b60035415801590610e4a57506005546001600160a01b031615155b15610f1057600554604051632e40661960e01b81526001600160a01b0390911690632e40661990610e8390869086908b90600401611596565b602060405180830381865afa158015610ea0573d6000803e3d6000fd5b505050506040513d601f19601f82011682018060405250810190610ec491906115d7565b610f105760405162461bcd60e51b815260206004820152601960248201527f436976696320766572696669636174696f6e206661696c65640000000000000060448201526064016105f7565b60006001600160a01b038216610f265786610f28565b815b600254909150610f4a90600160401b90046001600160a01b03168230886110f5565b846000876001811115610f5f57610f5f61121e565b03610f81578060096000828254610f7691906114bb565b90915550610f999050565b80600a6000828254610f9391906114bb565b90915550505b6001600160a01b03881660009081526007602052604081208291896001811115610fc557610fc561121e565b6001811115610fd657610fd661121e565b81526020019081526020016000206000828254610ff391906114bb565b90915550506001600160a01b038816600090815260086020526040812080548892906110209084906114bb565b9250508190555085600b600082825461103991906114bb565b92505081905550876001600160a01b03167fa4753cafd1d19e99e7b7123e5e7d4def700c2480dd6071630bc96ccd0358f1718888848760405161107f94939291906115f9565b60405180910390a25050505050505050565b6040516001600160a01b038381166024830152604482018390526110f091859182169063a9059cbb906064015b604051602081830303815290604052915060e01b6020820180516001600160e01b03838183161783525050505061112e565b505050565b6040516001600160a01b0384811660248301528381166044830152606482018390526109d49186918216906323b872dd906084016110be565b600080602060008451602086016000885af180611151576040513d6000823e3d81fd5b50506000513d91508115611169578060011415611176565b6001600160a01b0384163b155b156109d457604051635274afe760e01b81526001600160a01b03851660048201526024016105f7565b80356001600160a01b03811681146107e657600080fd5b6000602082840312156111c857600080fd5b6111d18261119f565b9392505050565b6000815180845260005b818110156111fe576020818501810151868301820152016111e2565b506000602082860101526020601f19601f83011685010191505092915050565b634e487b7160e01b600052602160045260246000fd5b6002811061125257634e487b7160e01b600052602160045260246000fd5b9052565b6101008152600061126b61010083018b6111d8565b6001600160401b038a1660208401526001600160a01b0389166040840152871515606084015290506112a06080830187611234565b8460a08301528360c08301528260e08301529998505050505050505050565b6020815260006111d160208301846111d8565b8035600281106107e657600080fd5b60008083601f8401126112f357600080fd5b5081356001600160401b0381111561130a57600080fd5b60208301915083602082850101111561132257600080fd5b9250929050565b60008060008060006080868803121561134157600080fd5b61134a866112d2565b94506020860135935061135f6040870161119f565b925060608601356001600160401b0381111561137a57600080fd5b611386888289016112e1565b969995985093965092949392505050565b6000602082840312156113a957600080fd5b5035919050565b6000602082840312156113c257600080fd5b6111d1826112d2565b600080600080606085870312156113e157600080fd5b6113ea856112d2565b93506020850135925060408501356001600160401b0381111561140c57600080fd5b611418878288016112e1565b95989497509550505050565b602081016114328284611234565b92915050565b6000806040838503121561144b57600080fd5b6114548361119f565b9150611462602084016112d2565b90509250929050565b600181811c9082168061147f57607f821691505b60208210810361149f57634e487b7160e01b600052602260045260246000fd5b50919050565b634e487b7160e01b600052601160045260246000fd5b80820180821115611432576114326114a5565b8082028115828204841417611432576114326114a5565b60008261150257634e487b7160e01b600052601260045260246000fd5b500490565b81810381811115611432576114326114a5565b6020808252600f908201526e13585c9ad95d081c995cdbdb1d9959608a1b604082015260600190565b604081016115518285611234565b8260208301529392505050565b6001600160401b038181168382160190811115611432576114326114a5565b60006020828403121561158f57600080fd5b5051919050565b6040815282604082015282846060830137600060608483018101919091526001600160a01b03929092166020820152601f909201601f191690910101919050565b6000602082840312156115e957600080fd5b815180151581146111d157600080fd5b608081016116078287611234565b602082019490945260408101929092526001600160a01b031660609091015291905056fea2646970667358221220b9e3fdf3b6124b348d1a504cb6cf57618131f411be6af292e528ea6c6711e71e64736f6c634300081a0033a26469706673582212202bce91265ddeb79357edc569285fdc19f5ddbbbdf76980e78b9957bd3df700f164736f6c634300081a0033",
  "linkReferences": {},
  "deployedLinkReferences": {}
}